:020000022000DC
:1060000000F003206D630200556302005763020035
:10601000596302005B6302005D6302000000000040
:106020000000000000000000000000005F630200AC
:106030006163020000000000636302006563020008
:106040006763020067630200D5D80200676302003D
:106050006763020067630200DD6602006763020097
:1060600067630200676302000D4A03006763020072
:1060700067630200676302006763020067630200F0
:1060800067630200D1D4030071A8020067630200B5
:1060900035D50300676302003D72030067630200A9
:1060A00067630200676302006763020067630200C0
:1060B0006763020067630200000000000000000048
:1060C00067630200676302006763020067630200A0
:1060D0006763020067630200676302006763020090
:1060E000676302006763020067630200000000004C
:1060F0000000000067630200000000006763020008
:10610000000000000000000000000000000000008F
:10611000000000000000000000000000000000007F
:10612000000000000000000000000000000000006F
:10613000000000000000000000000000000000005F
:10614000000000000000000000000000000000004F
:10615000000000000000000000000000000000003F
:10616000000000000000000000000000000000002F
:10617000000000000000000000000000000000001F
:10618000000000000000000000000000000000000F
:1061900000000000000000000000000000000000FF
:1061A00000000000000000000000000000000000EF
:1061B00000000000000000000000000000000000DF
:1061C00000000000000000000000000000000000CF
:1061D00000000000000000000000000000000000BF
:1061E00000000000000000000000000000000000AF
:1061F000000000000000000000000000000000009F
:10620000344935480A1A02D0072291438D46334952
:1062100033480A1A06D00722914381F309880222E3
:1062200082F314882F483049304A00F042F8304851
:106230003049314A00F03DF830483149314A00F0E8
:1062400038F831483149324A00F033F831483249A0
:10625000324A00F02EF832483249334A00F029F829
:1062600032483349334A00F024F833483349002296
:1062700000F02AF832483349002200F025F832486D
:106280003249091A082902DB0022026041601F48D6
:106290001F49884205D00268043003B4904703BC0C
:1062A000F7E700208646EC4600200021284A904768
:1062B000FEE7884207D0521A05D0037801300B70F0
:1062C0000131013AF9D17047884202D002700130A1
:1062D000FAE7704700F0032000E8032000F00320F5
:1062E00000F0032028F30300A02D0020F02D002053
:1062F000A4630200A4630200F2D9030028F30300A0
:10630000A02D0020A02D0020E0DA0300E0DA030039
:10631000E0DA0300E0DA0300E0DA0300E0DA030089
:10632000E0DA0300E0DA030026F3030078F3030069
:10633000F02D0020F02D0020F02D0020E85C002042
:10634000E85C0020E85C0020E85C0020E8600020B9
:1063500091650200FEE7FEE7FEE7FEE7FEE7FEE7E7
:10636000FEE7FEE7FEE7FEE7704700BF094880470B
:1063700009484FF007018843854608488047084888
:10638000016841F470010160BFF34F8FBFF36F8F5D
:10639000FFF736BF6963020000F00320F1720300CB
:0463A00088ED00E0A4
:1063A40041DF704700B58DB02422002103A817F007
:1063B400B9FA01238DF80C3007238DF80F3006232A
:1063C4008DF81430234903A809F082FBE0B9224B6D
:1063D4001B6813F4804F03D0204B1B68032B18DC7D
:1063E400012012F065FDF8B91B4B1B6813F4804FB4
:1063F40003D01A4B1B68032B1BDC002009F00CFB99
:1064040010BB0DB05DF804FB154A3D2111F066F890
:10641400DDE7144BD3F80435134A00923F221349A5
:10642400042005F057FADBE70D4A402111F056F835
:10643400DAE70C4BD3F804350D4A009242220B499B
:10644400042005F047FAD8E7054A432111F046F83D
:10645400D7E700BFF02D0020B42D0020B02D002080
:1064640038DB03000010014078DB030071DB03001C
:1064740098DB030000B583B01F4A04214EF20700E5
:1064840005F00CFA1D4B1B6813F4804F03D01C4B12
:106494001B68032B14DC17F04FF8E0B900F0FCF88C
:1064A40000F024FAFFF77EFF144B1B6813F4804FAF
:1064B40003D0134B1B68032B12DC03B05DF804FB01
:1064C400104BD3F80435104A00924D220F49042092
:1064D40005F000FADFE70E4A4F2110F0FFFFDDE779
:1064E400084BD3F804350B4A00925622074904207E
:1064F40005F0F0F9E1E700BF75B80200B42D002003
:10650400B02D002000100140E0DA030071DB03002D
:1065140038DB03001CDB030000B583B009F097FAF5
:1065240090B900F02BFB00F05BF909F0B5FA80B9E3
:10653400104B1B6813F4804F03D00F4B1B68032BC5
:106544000CDC03B05DF804FB0C4A5B2110F0C6FFC1
:10655400E7E70A4A5F2110F0C1FFE9E7084BD3F8E7
:106564000435084A009261220749042005F0B2F973
:10657400E7E700BFB42D0020B02D002038DB030076
:1065840000100140BCDB030071DB030008B5FFF71A
:1065940071FFFFF7C1FF00214FF4F03000F03AF82B
:1065A4000222C8214FF4F03000F040F8FFF7F8FE63
:1065B400FCE7000008B5134B1B6873B14FF0A04211
:1065C400D2F80435104909684B40C2F804350D4A25
:1065D4001368013B136023B108BD002010F070FF65
:1065E400ECE70A4817F014F84FF0A042D2F804354B
:1065F4000549096823EA0103054909680B43C2F800
:106604000435E9E7F42D0020F82D0020FC2D0020AE
:10661400242E002021B14FF0A043C3F80C0570478D
:106624004FF0A043C3F80805704700005AB338B5CB
:106634001346132900D838BD134A10605B00013B90
:10664400124A13604FF0A043D3F804351840104B9E
:10665400186000254C0CC8034FF47A72002310F51F
:10666400FA7044EB050116F0EFFF2A46014609488B
:1066740016F0B0FF0028DED1034B1A684FF0A04398
:10668400C3F80C25D7E77047F82D0020F42D00201F
:10669400242E0020FC2D002008B50D230BE04FF024
:1066A400A04103F5E072032041F8220001229A4040
:1066B400C1F808250133102BF1D9054A01210548F9
:1066C40016F072FF00B908BD10F0FAFEFBE700BF38
:1066D400B96502008CDC030010B582B0354B1B6831
:1066E40013F4804F03D0344B1B68032B04DC0024C9
:1066F400324BC3F87C4124E0314BD3F80435314AA2
:10670400009240F203123049042005F0E3F8EEE76A
:10671400D11A29E02A4BD3F804352C4A00924FF4BD
:1067240087722949042005F0D5F82AE0214B1B681B
:1067340013F4804F03D0204B1B68032B2BDC013454
:10674400E4B2032C33D84FF0A043D3F81025204BE8
:10675400195D01238B409343E8D01E4B1B68184AF4
:10676400D2F80425991AD3D443F233339942DDD9AC
:10677400104B1B6813F4804F03D00F4B1B68032B83
:10678400C8DC0F4BD3F80425124B1A60124B1B685C
:1067940020469847D3E70A4BD3F804350F4A0092B2
:1067A40040F213120849042005F094F8C7E702B038
:1067B40010BD00BFB42D0020B02D002000600040AB
:1067C40000100140F4DB03005DDC030008DC03007F
:1067D40090DC0300202E00201C2E002014DC03007B
:1067E400002869D02DE9F043CFB00646334B1B682F
:1067F40013F4804F03D0324B1B68032B0BDC2F4B5D
:106804001B6813F4804F03D02D4B1B68032B2ADC29
:106814004FB0BDE8F08300230F2B0FD8F25C294959
:106824000D6810095900285C0DAC04F8130002F03F
:106834000F020131AA5C62540133EDE70DAA002373
:106844008DF8543003F1804303F58833D3F80435CD
:1068540002921D4A01921D4A009241221C490420C1
:1068640005F038F8CBE71B4BD3F80435B288F18830
:10687400307A747AB57AF77A96F80CC096F80DE007
:1068840096F80E8096F80F90CDF82C90CDF82880CD
:10689400CDF824E0CDF820C0079706950594049020
:1068A40003910292326801920B4A009246220849EF
:1068B400042005F00FF8ABE7704700BFB42D0020AB
:1068C400B02D0020B82D0020E0DC0300F4DC030030
:1068D400CDDC030000100140FCDC030060DF7047E6
:1068E40069DF704708B502F0F5FD08BD10B588B042
:1068F40010F04AFC00282BD1224B0793079A0692EA
:10690400002303930493059303A90120FFF7E8FFF1
:1069140008BB002304930593F8230393069A03A961
:10692400A120FFF7DDFFC8B906A8FFF7D7FF04468B
:10693400069A079B9A4208D0134B1B6813F4804FA6
:1069440003D0124B1B68012B0BDCB4B908B010BD8B
:1069540010F0B6FDD0E710F0B3FDDAE710F0B0FDAB
:10696400E2E70B4BD3F8043501920A4A0092A222C3
:106974000949022004F0AEFFE7E7204610F0A0FD2D
:10698400E4E700BFA02D0020B42D0020B02D00208E
:106994000010014090DD030075DD03000620704700
:1069A40000B587B041F2010398424CD020D944F29B
:1069B400010398425DD044F20203984274D1464BDD
:1069C4001B6813F4804F1ED0444B1B68002B1ADD48
:1069D400434BD3F804351088039052680292019116
:1069E400404A00926C224049012004F073FF0AE0FF
:1069F400012859D1384B1B6813F4804F03D0374B0F
:106A04001B68002B12DC4FF0A0434FF4F032C3F8A4
:106A14001825C3F80C25EFF3108372B64DF6AD6C50
:106A2400324B1B78002B54D030BFF9E72C4BD3F8F2
:106A34000435029201912E4A009260222A490120D3
:106A440004F048FFDFE7244B1B6813F4804FDAD0CF
:106A5400224B1B68002BD6DD214BD3F80435029260
:106A64000191244A009263221F49012004F032FF5D
:106A7400C9E7194B1B6813F4804FC4D0174B1B682C
:106A8400002BC0DD164BD3F8043510680490506811
:106A94000390029192680192174A00927722124958
:106AA400012004F017FFAEE70B4B1B6813F4804F73
:106AB400A9D00A4B1B68002BA5DD094BD3F804357C
:106AC40001910E4A00927B220749012004F002FF43
:106AD40099E707B05DF804FBB42D0020B02D002029
:106AE4000010014058DE030005DE0300A02D002045
:106AF40018DE030034DE030078DE03009CDE0300AE
:106B040000B583B00023ADF80030054B01936A460D
:106B1400014644F20200FFF743FF03B05DF804FBB3
:106B240098DE030010B40346044C006859689A6860
:106B3400DB680FC45DF8044B704700BF282E0020AB
:106B44000B4B0C4A92E8030083E8030003F10802AC
:106B5400094903C982E80300DA79042161F30712C1
:106B6400DA711A7A022161F387121A72704700BF30
:106B7400282E002060000010A40000100048704778
:106B8400282E002000231F2B09D8074901EBC3003E
:106B940000224280426001F833200133F3E7034BC3
:106BA40000221A60704700BF382E0020382F0020C2
:106BB40030B405460F4B1B6800240AE01F230E4A1D
:106BC40012F83300A0B102EBC3025288AA4207D0E4
:106BD40001341F2C0BD85A1E002BEFD01346EEE7BE
:106BE400054A02EBC30252688A42F1D100E0002058
:106BF40030BC7047382F0020382E002030B40A4AA9
:106C040013680A4C04EBC30568806960012104F829
:106C140033100B441360202B01D030BC7047134653
:106C240000221A60F9E700BF382F0020382E002018
:106C3400C0F30C038B4204D2C91A0144A1F50050DD
:106C44007047C91A08447047C37D002B42D0C378EB
:106C54000A7802F0800203F07F0313430B7002787A
:106C64000B7803F07F0343EAC2130B700378002B05
:106C740041D030B48378082B14BF002201224B7812
:106C840003F07F0343EAC2134B70C58803F080030B
:106C9400C5F3861423434B708A7802F0030242EA58
:106CA4008502D2B28A70057A02F0FC02C5F3C104EF
:106CB40022438A70CB7803F01F0343EA4513DBB207
:106CC400CB70427A03F0E00302F01F021343CB704F
:106CD40030BC7047C3780A7802F0BF029B0103F00E
:106CE400400313430B70027903F0C00302F03F0228
:106CF40013430B70B3E770470023032B2DD810B454
:106D040002E00133032B24D8C3EBC3021401144A59
:106D1400224492F84820012AF3D1114A2244948A49
:106D2400C2899442EDD1C3EBC30214010C4A22443C
:106D3400D2888A42E5D10A4A2244B2F8582012B1D4
:106D4400848AA242DDD1C3EBC3031A010448104470
:106D540000E000205DF8044B70470020704700BF3E
:106D6400EC2F0020002300E00133032B14D8C3EBE5
:106D7400C3021101094A0A4492F84820022AF3D1B5
:106D8400064A0A44918A828A9142EDD1C3EBC30335
:106D94001A0102481044704700207047EC2F00206D
:106DA40008B9042070470820704730B403460C46E5
:106DB4000978C17000214162A1680B2903D8217BA5
:106DC40001B3012100E0012119700020987029B15C
:106DD400A1680731C9080139597218720121D9759E
:106DE40003F10C0504F1100103C985E80300E189EE
:106DF4009982A1691962217F9975216AD9629A627F
:106E040030BC70470021DFE70021174B1B688B4221
:106E140027D90023154A02EBC10252689A421ED9AF
:106E240010B40FE060685DF8044B704701310E4BFD
:106E34001B688B4211D900230C4A02EBC102526831
:106E44009A42F3D9094A52F8312002EBC30412F8EA
:106E540033208242E6D00133EEE70020E3E701313C
:106E6400D3E70020704700BF3C2F0020402F0020B4
:106E740070B58CB006460D4614462C22002101A89C
:106E840016F050FD0F238DF80430ADF808604FF074
:106E9400000365F300038DF80A308DF80B4001A858
:106EA40001F016FA0CB070BD30B58DB005460C4635
:106EB4002C22002101A816F035FD10238DF8043092
:106EC40002958DF80C4001A801F002FA0DB030BD16
:106ED40000B58DB010B913F1020F06D1074B186835
:106EE40003F0F4FB0DB05DF804FB01228DF80420DF
:106EF400029301A801F0ECF9F0E700BF482F00204D
:106F0400D0B50446037853B1E3691F0A1E06E1882D
:106F1400A069FFF78DFE301847F10001D0BD784617
:106F2400FFF7EEFDF0E70000F8B50546002400E0A9
:106F34000134032C20D8C4EBC4031A010F4B1344AF
:106F440093F84830022BF3D10C4B13449A8AAB8A42
:106F54009A42EDD12846FFF7D3FF06460F46C4EB0D
:106F6400C402130105481844FFF7CAFF8F4208BF43
:106F74008642DDD2012000E00020F8BDEC2F002085
:106F8400F8B5064603783BB13046FFF7B9FF04462F
:106F94000D46B08A002304E07846FFF7B1FDF3E71D
:106FA4000133072B0ED81A0107498A5A8242F7D1B6
:106FB40001EB0312D2E90267AF4208BFA642EFD148
:106FC400104600E00020F8BD502F002038B50446DC
:106FD4000D46037853B10023072B0ED8A18A1A015A
:106FE4001248825A914205D00133F5E77846FFF7FB
:106FF40087FDF0E71B010021C1520D4A1368591C9B
:10700400116003F00703A08A1A010849885255B198
:107014006278064D05EB0315AA702046FFF770FF52
:10702400C5E9020138BD0022F3E700BF502F00205C
:10703400D02F0020F8B5069C002962D00F461668B0
:107044005568D2F808E0D2F80CC0E6602561C4F8AF
:1070540014E0C4F818C016695569E6612562002277
:1070640062700278D209227062B30421B9424AD80C
:10707400E57D4DB3017801F07F01E1700021A1703D
:107084009AB14278920102F4FE52817842EA910266
:10709400E2808278D20002F01802C17842EA5112EA
:1070A4002272C27802F01F0262721D4600236362DC
:1070B4002B78032B21D82A78144B53F82230E3621F
:1070C4000020F8BD0121D1E70578C5F38015E570EE
:1070D400057805F03F05257142B190F901100029AA
:1070E40002DB0421A170CBE70821FBE70425A5708E
:1070F4002944B942C4D90920E3E77846FFF700FDE3
:10710400D9E70920DDE70920DBE700BFB8DE03008B
:1071140070B50C461E460378ABB104252A44A26020
:1071240000F10C032360836A6360C36AE360002395
:107134002374204603F03EFE034610B962691544E9
:107144003560184670BD0125E8E72DE9F0418EB0A1
:107154000D4616461C46804600282DD0002D2FD003
:10716400002C31D0636A0233059304F10C00E378F8
:10717400002B2DD00121A27801AF3B46082A14BF71
:107184000022012203F0E7FB0697CDF81C80B2B27F
:10719400ADF820200B9515440C95A3788DF8343068
:1071A400237B022B16D00023ADF8283005A803F06A
:1071B400CAFB0EB0BDE8F0817846FFF7A1FCCDE72D
:1071C4007846FFF79DFCCBE77846FFF799FCC9E7C3
:1071D4000221D0E723692BB1236909931023ADF869
:1071E4002830E3E77846FFF78BFCF5E72DE9F0411B
:1071F40088B004460D46C37D002B3CD0082605FB11
:1072040006F8637AAB4238D0257201AB324602A944
:107214002046FFF77DFF074648BB4DB994F853302D
:1072240033B9A369C3F30C03E380012384F8533017
:10723400E37D7BB994F8523063B91DBBB4F84A10AE
:10724400A27823468A1AE16E0846FFF77EFF0123DF
:1072540084F8523007992046FFF7F6FCE16E324677
:107264004144019816F035FB02A803F0C9FD3846E5
:1072740008B0BDE8F0810C26C1E7B4F84A60A6EB7B
:107284000806C1E77846FFF73BFCD7E770B505462B
:107294000E4609B100230B6095F85040002104E02C
:1072A400631C85F850300134E4B26B7AA34210D3E6
:1072B400EA6C0123A3401A42F5D121462846FFF780
:1072C40095FF014628B9002EEAD0336801333360B4
:1072D400E6E7084670BDF0B589B085781544C37DEE
:1072E4007BB10B239D4224D816460F46044601ABBE
:1072F4002A4602A9FFF70CFF054620B1284609B02B
:10730400F0BD0F23EEE707992046FFF79DFCE37DD0
:1073140043B132463946019816F0DBFA02A803F06D
:107324006FFDEBE72346324601993846FFF70DFF20
:10733400F4E70925E2E7000010B5044690F8483068
:10734400012B0CD102F08CFB237B012B0BD0094BBE
:10735400D968014404F1300002F058FB10BD7846AE
:10736400FFF7CEFBEEE7A37D024AD168126902FB68
:107374000311EEE7D42F002030B583B0002403E0DE
:107384002846FFF7D9FF0134032C19D8C4EBC403F2
:107394001A010C4B134493F84830012BF3D100230A
:1073A4000193C4EBC4021301064D1D4401A92846F0
:1073B400FFF76CFF0428E3D0019B002BE3D0DFE749
:1073C40003B030BDEC2F002038B5044690F84830A7
:1073D400022B09D1064B1D6802F042FB411904F14E
:1073E400300002F013FB38BD7846FFF789FBF1E764
:1073F400D42F002038B5044690F84830022B10D121
:107404000A4B5D7D5A689B6803FB052502F028FB47
:10741400411904F1500002F0F9FA012384F86830AC
:1074240038BD7846FFF76CFBEAE700BFD42F002095
:1074340010B50446808A01F07DFE01281CD1237B0F
:10744400E3B194F91620002A1ADBE27D4AB1022B3B
:1074540018D094F90330002B16DBA378B3B90020BD
:107464000BE0E2780AB9012B12D1237893B9A378FF
:10747400042B11D1002000E0102010BD1020FCE7E7
:107484000720FAE71020F8E70720F6E70720F4E7DB
:107494000720F2E70020F0E70720EEE738B50446BE
:1074A400C2698169808A04F0A1FC054608B92846AE
:1074B40038BDE169002201F00101A08AFFF7D8FC80
:1074C400F5E700002DE9F04780460E4617464B1EAF
:1074D400DBB2012B0FD8B7F5C07F10D80024032CE2
:1074E4001AD8C4EBC4031A01304B134493F8483040
:1074F4004BB10134F3E77846FFF702FBEBE778463C
:10750400FFF7FEFAEAE7DFF8A4A01546554438462B
:1075140006F05BF9E86600E000255DB3EB6E002B36
:1075240042D043462A4608F1300ED3F800C05C68C6
:107534009868D968C2F800C054609060D160103374
:1075440010327345F1D10023EB64A5F84A70012E83
:1075540013D06FF00103AB62002385F86830144B3D
:10756400AB652D66134BAB632D64012001F0A0FBCA
:1075740085F848602846BDE8F0870F4B1B7D85F8E9
:107584005130002385F8523085F8533085F8503057
:10759400D8F828206A65A5F858306FF00103AB626B
:1075A400064BAB632D64E0E71D46E3E7EC2F0020B8
:1075B400037F0200E9780200D42F0020357902000D
:1075C40000B585B000238DF80F3098B10346084606
:1075D40002330B600DF10F0103F0B9F99DF80F3080
:1075E40043B10D4B1B6813F0040F03D00B4B1B6806
:1075F400032B04DC9DF80F0005B05DF804FB084B79
:10760400D3F80435074A009240F237420649042071
:1076140004F060F9EEE700BFB42D0020B02D002087
:1076240000100140C4DF0300B7DF03002DE9F0437D
:107634008FB004460E4615461F46D0F818900378BE
:1076440023B1C1884846FFF7F3FAA06104F10C00A6
:10765400E378002B37D00121A2780DF128084346A6
:10766400082A14BF0022012203F075F9C4F8189007
:10767400CDF808800396A378EA1A92B2ADF81020E8
:107684003244089207978DF824300023ADF818305F
:10769400E37863B3237B022B17D02546002345F8F8
:1076A400243F2A462179206A0CF0D2FB606A90B10B
:1076B40001A9FFF785FF00283ED12A462179206AD7
:1076C4000CF0C6FBF2E70221C6E71023ADF8183030
:1076D40023690593E1E7237B022B31D104F10C01EB
:1076E400E0890CF067FC0028D4D1052025E0237B39
:1076F400012B01D0052020E0E389ADF80030A38AF6
:10770400ADF80230002500E00135012D12D82146E4
:10771400002341F8243F0EAB03EB450333F8380C48
:107724000CF0B3FB01A9606AFFF74AFF0028EBD015
:10773400002002E0052000E000200FB0BDE8F08347
:107744000520FAE770B5F0B00D4614461E4610AB9E
:107754000A4601462046FFF769FF50B1224B1B68D9
:1077640013F0040F03D0214B1B68052B2FDC70B0E2
:1077740070BD2046FFF792FE0028F8D103AB01222A
:107784008DF80C20A28AADF80E20002204928DF808
:10779400142010AA0692A278AD1AADF81C5008AABB
:1077A40093E8030082E803000AAB04F10C0292E8B8
:1077B400030083E80300A37D8DF83830236A0C931B
:1077C400636A0D930F9605A800F082FDCFE7084B7E
:1077D400D3F80435074A009240F20E720649062097
:1077E40004F078F8C3E700BFB42D0020B02D0020CA
:1077F40000100140E8DF0300B7DF030010B50446C2
:10780400C06E05F0E6FF04F1300002F0E7F894F8EA
:107814004830022B0AD070220021204616F082F84C
:10782400002084F8480001F043FA10BD04F1500030
:1078340002F0D4F8EFE710B58CB0044690F8483065
:10784400012B0CD101238DF80430636D029301A840
:1078540000F03EFD2046FFF7D1FF0CB010BD784686
:10786400FFF74EF9EEE7000030B585B00D4604464B
:10787400A8B194F84830022B15D02946606DFFF763
:1078840013FB2046FFF7BAFF114B1B6813F0040FDC
:1078940003D0104B1B68032B0ADC05B030BD7846BF
:1078A400FFF72EF9E5E700212046FFF78FFBE4E719
:1078B400094BD3F8043594F8482002950192074AFD
:1078C400009240F22E220649042004F003F8E4E773
:1078D400B42D0020B02D002000100140C8DE0300AC
:1078E400B7DF030008B508460021FFF7BDFF08BD58
:1078F40008B5037B012B02D0FFF79DFF08BD0121D2
:10790400FFF7B2FFFAE7000008B590F8513053B121
:10791400013B80F85130002380F85030034B186845
:1079240002F0D4FE08BDFFF7E3FFFBE7482F002079
:1079340010B50C4691F84830012B03D12046FFF7CF
:10794400E3FF10BD7846FFF7DBF8F7E7062976D1A9
:10795400F0B585B015460278910101F4FE514778DF
:107964008478C3781B0443EA0463047943EA042358
:1079740044791C4356B241EA97012846FFF7BCF903
:107984000746E0B1002E2FDBC289A98A8A422BD098
:107994002B4B1B6813F0040F3ED02A4B1B68012BA2
:1079A4003ADD294BD3F8043502910192274A00921B
:1079B40040F28C622649022003F08CFF2CE0204B1D
:1079C4001B6813F0040F27D01E4B1B68012B23DD0B
:1079D4001D4BD3F804351F4A009240F284621C49BF
:1079E400022003F077FF17E0002E17DBFD6C254320
:1079F400FD64BCB13B78D3B17B7A5A1C012393401C
:107A0400013B9D4217D0002187F850103846FFF7FC
:107A14003DFC3846FFF790FC05B0F0BDAB8AA7F8F3
:107A24005830E3E703213846FFF71EFFF4E77846B2
:107A3400FFF766F8E0E73846FFF7FDFEECE770472E
:107A4400B42D0020B02D00200010014030DF0300D1
:107A5400B7DF030000DF03002DE9F0438BB00746D6
:107A64000E4614461D461046FFF718FD50B994F80B
:107A74000380B8F1000F08D12B4622463146384620
:107A8400FFF764FF0BB0BDE8F0834046FFF7BCF995
:107A940081460028F6D08DF80480236A0793A38AD0
:107AA400ADF8123005AB04F10C0292E8030083E850
:107AB4000300A37D8DF820300297039623788DF878
:107AC4001030E36A0993294601A8C847DAE710B5DC
:107AD400547814F0010F03D0D47D14B1FFF7BCFF28
:107AE40010BDFFF72FFEFBE708B501390130FFF7A2
:107AF400EEFF08BDF0B5C7B086781644C37D2BB140
:107B04004FF48073B3427ED3002303E04FF4C07379
:107B1400F8E70133032B19D8C3EBC30425013C4C0C
:107B24002C4494F84840012CF3D1394C2C44A58AB8
:107B3400848AA542EDD1C3EBC3042501344C2C4403
:107B4400E589C489A542E4D1082455E014460F46CA
:107B540032460121FFF7B6FC0546002855D02246DF
:107B64003946C06E15F0B5FE0023459345A9284655
:107B7400FFF78CFB044608B1042840D1459B7BB930
:107B8400244B1B6813F0040F35D0234B1B68032BC5
:107B940031DDB5F84A70802F28BF8027002313E019
:107BA4002846FFF7C9FBEBE7EA6ED25C1B490C6879
:107BB40010095900265C04A800F8136002F00F02B3
:107BC4000131A25C42540133BB42EDD304AA002329
:107BD40002F8173003F1804303F58833D3F80435F2
:107BE40002920F4A01920F4A009240F271520E49DA
:107BF400042003F06FFE0024204647B0F0BD284661
:107C0400FFF7FCFDF8E70924F6E70424F4E700BFD6
:107C1400EC2F0020B42D0020B02D0020B82D002022
:107C240074DF0300F4DC0300B7DF030070B504461F
:107C34000D461646FFF7FCFB034638B923783BB1E3
:107C4400324629462046FFF755FF0346184670BDC5
:107C5400324629462046FFF73EFB0346F6E700007E
:107C640038B504460D46CB695B780371CB691B7844
:107C740083F00103C370CB6943628B8A0B2B07D853
:107C8400CB7A002B35D10B7B012B02D0002300E0F3
:107C940001232370002B31D0287B02282BD0FFF73F
:107CA4007FF8A070AB8A03440B33174880FB03238F
:107CB4005B10013B6372002323720023E37504F11C
:107CC4000C0395E8030083E80300AB6923622B8966
:107CD400A382AB7AA3752B6AA362DF23E3622846EF
:107CE4000CF096F920B12B78012B0AD0FF23E36224
:107CF40038BD0123CDE7054B987DD0E70423A3705D
:107D0400DBE72023F3E700BFABAAAA2AD42F002085
:107D140010B54FF4E0720021134815F003FE04F08F
:107D240017F90024114B1C6080222146104815F0DD
:107D3400F9FD104B104A1A60104A5A604CF2503246
:107D44009A600F49D9601A6104221A759C75082239
:107D54005A750C4802F09AFC0B4B18600B4B1C60D4
:107D64000B4804F0F7F910BDEC2F0020D02F0020B1
:107D7400502F0020D42F002080969800F049020054
:107D840020A10700F57E0200482F00203C2F002090
:107D9400D56E020008B504F021F808BD98B110B5FD
:107DA4008CB00446036983B1C36983B1836983B129
:107DB40001466846FFF754FFA28A21696846FFF727
:107DC40035FF0CB010BD0E2070470E20F9E70E20D1
:107DD400F7E70E20F5E790B110B58CB00446426881
:107DE4007AB182697AB10A4601466846FEF7DDFF38
:107DF400A26861686846FFF719FF0CB010BD0E2039
:107E040070470E20F9E70E20F7E70000037B012BF3
:107E140001D00020704710B58CB000230193CDF839
:107E24000730C288C2F3861492008DF801200A0E2E
:107E34008DF802200A0C8DF803200A0A8DF804201C
:107E44008DF805104278022A14BF0022012244EA68
:107E5400C2148DF800400622059201228DF81C20E0
:107E6400828AADF81E2008938DF80C30CDF810D01E
:107E7400026A09928DF81830C389ADF81A30C36AC2
:107E84000B93837D43B98DF828306FF0010103A86B
:107E9400FFF7A1FF0CB010BD024B5B7D8DF82830BD
:107EA400F3E700BFD42F002090F84830022B00D015
:107EB400704790F86830022BFAD110B50446C16CB3
:107EC400FFF7A4FF10B9002384F8683010BD000048
:107ED40010B5002407E0C4EBC4021301034818449E
:107EE400FFF7E2FF0134032CF5D910BDEC2F00207D
:107EF40008B5FFF741FAFFF7EBFF012008BD10B505
:107F04000C4691F84830022B06D1022384F86830DD
:107F14002046FFF7C9FF10BD7846FEF7F1FDF4E7F0
:107F24002DE9F0438FB00646FEF7FEFF002840F02F
:107F34008E803046FFF724F8074600283CD13046AF
:107F4400FEF710FF044658B13046FEF7D9FF8046CD
:107F540089462046FEF7D4FF494508BF404553D320
:107F6400002C75D1757A6B1CF27D002A52D008253D
:107F740005FB03F5002A4FD04FF48073AB424ED378
:107F8400F188B069FEF754FEF2690146B08A03F045
:107F940089FF00285CD12A4602213046FFF792FA75
:107FA4000446002854D100213046FFF72FFF022158
:107FB4000020FEF779FF4BE002AC35460FCD0FC42D
:107FC4000FCD0FC495E80F0084E80F00BB788DF83F
:107FD40009307BB19DF8083073B19DF811104B1C2A
:107FE40001219940013902A8FFF710FFBB7813F073
:107FF400010F05D100242BE07846FEF781FDECE764
:108004003046FFF74BFAF5E705212046FFF72CFC35
:108014003C46A7E70C25ABE74FF4C073AEE70E4B25
:108024001B6813F0040F03D00C4B1B68002B01DCFE
:108034003C460DE00A4BD3F804350195094A0092F9
:1080440040F292320849012003F044FCF0E7002496
:1080540020460FB0BDE8F083B42D0020B02D0020E1
:1080640000100140ECDE0300B7DF03002DE9F0410E
:1080740082B00646884615461F461046FFF750FF55
:10808400002847D00446434B1B6813F0040F03D069
:10809400414B1B68032B40DC2046FFF795F9237BFB
:1080A400012B48D0E16C2A7A01239340194231D143
:1080B4000B43E364A8F104082B7AEA7D002A42D03A
:1080C4004FF0080C0CFB03FC617A8B423ED0002A73
:1080D40041D00823434540D1A269AB699A4209D2F1
:1080E40004F10C0E0C350FCDAEE80F0095E803003B
:1080F4008EE80300E06E4246311D604415F0E9FB52
:10810400E56C237873B3637A5A1C01239340013BD3
:108114009D422BD002B0BDE8F081204BD3F804354A
:108124002A7A01921E4A00924FF471721D4904206A
:1081340003F0D0FBB0E794F86830002BB2D12046AE
:10814400FFF758F9AEE74FF00C0CBBE70CEB080354
:10815400A4F84A30C0E70C23BCE704212046FFF70B
:1081640083FBD7E77846FEF7CBFCCCE7E16C2046EF
:10817400FFF74CFE3B462246B4F84A10E06EFFF788
:10818400A6FC01212046FEF721FF2046FFF736FB1F
:10819400C0E700BFB42D0020B02D00200010014026
:1081A400D8DF0300B7DF03002DE9F04190B00028C9
:1081B40042D08046002A41D01F4614460E4604ABE6
:1081C40000933B46FEF736FF054618B1284610B02B
:1081D400BDE8F08104A8FFF72BF905460028F5D186
:1081E4002269E168208903F05DFE0028EED10023B6
:1081F4000293039302A960880BF0DCFE38B19DF86A
:10820400113043F001038DF81130039B08939DF85E
:108214001130002BDAD09DF8103033B13B4604AA5C
:1082240031464046FFF722FFD0E73B4604AA3146D9
:108234004046FFF759FCC9E70E25C7E70E25C5E7F9
:10824400F8B500B30546164B1F68F7B90E463C4611
:10825400B4420ED205EBC4035B68CBB115F834000D
:1082640010F0800F16D1B8B1FEF7CEFDB0B90134CD
:10827400EEE70C4B43F8375003EBC7035E607B1CFF
:10828400074A136002E00E2700E004273846F8BDD1
:108294000E27FBE70B27F9E70F27F7E70F27F5E78B
:1082A4003C2F0020402F0020084B196861B110B505
:1082B40004E0064803F079FA214624B10C680B79EE
:1082C400002BF9D0F5E710BD704700BFB031002096
:1082D40038B5054630B1104B1C68ACB10F4B0122C8
:1082E4001A7004E07846FEF70BFCF4E724683CB10E
:1082F4002379002BFAD154F8043C28469847F5E733
:10830400064B1B78022B00D038BDFFF7CDFF034B83
:1083140000221A70F8E700BFB0310020AC31002011
:1083240010B5044630B100232372211D034803F025
:1083340011FA10BD7846FEF7E3FBF4E7B0310020F4
:108344000A8883689B5A07339BB223F003031344C0
:108354009BB20288043A934200D900230B807047F1
:1083640010B582B004468368C91AADF806100DF141
:108374000601FFF7E5FFBDF80630A068184402B017
:1083840010BD0088043880B2704743888268D018D2
:10839400D152012383707047826800239370438015
:1083A40083807047073189B221F0030189B2428882
:1083B40083889A4204D29B1A99421EDC002070479B
:1083C40010B59A420FD90488A41AA14217D98B4236
:1083D40017D3032C03D98368134404229A7000230F
:1083E4004380184604E0826813449B780BB1042050
:1083F40010BDFFF7D1FF0020FAE7042070470020EA
:10840400F6E70420F4E738B504460D46836882880D
:1084140013448B4202D07846FEF772FB0023AB7004
:10842400211D2046FFF78CFFA288A36813449B7884
:10843400042B00D038BD0023A380FBE710B50C4605
:108444008368428813448B4202D07846FEF758FB77
:108454000023A37010BD10B5044630B12388042B4B
:1084640007D92046FFF78DFF10BD7846FEF748FB7D
:10847400F4E77846FEF744FBF3E770B50646154685
:108484000C46002944D0002E46D0B4F1005F08D930
:108494004FF08053D3F80C3103F50023B4EB832F52
:1084A4000ED3B4F5000F08D94FF08053D3F80C3134
:1084B40003F50053B4EB832F02D37846FEF720FB79
:1084C4006B1E2344B3F1005F08D94FF08052D2F8F9
:1084D4000C2102F50022B3EB822F0ED3B3F5000F6B
:1084E40008D94FF08052D2F80C2102F50052B3EBB8
:1084F400822F02D37846FEF703FB042D10D9358072
:1085040000237380B380B460043D2580A37070BDE4
:108514007846FEF7F5FAB6E77846FEF7F1FAB4E7DF
:108524007846FEF7EDFAEAE738B50446A0B162886A
:10853400A36813449B78012B12D0EFF3108572B615
:10854400A388A16819448B78032B0DD02046FFF72C
:1085540023FF05B962B638BD7846FEF7D1FAE6E7DF
:108564007846FEF7CDFAE8E72046FFF7F9FEA36860
:10857400C31A638000238370EBE72DE9F0410E46B4
:1085840015460446D0B1EEB16288A36813449B78C3
:10859400012B1BD025B32046FFF7F3FEA84221D3BD
:1085A400EFF3108872B629462046FFF7FBFE074614
:1085B40080B1B8F1000F16D162B614E07846FEF728
:1085C4009FFAE0E77846FEF79BFADDE77846FEF788
:1085D40097FADFE729462046FFF7D7FE3060E8E741
:1085E400092700E009273846BDE8F081F8B50C46B4
:1085F40016460546E0B1FCB1A378012B20D12388AF
:10860400B34221D326B3EFF3108772B62680022338
:10861400A370E9182846FFF793FE6B88AA88934253
:1086240003D0AA68134400229A7007B962B6F8BD51
:108634007846FEF765FADEE77846FEF761FADBE78F
:108644007846FEF75DFADAE77846FEF759FAD9E795
:108654007846FEF755FAD6E770B50D46044690B154
:10866400ADB1EFF3108672B6A288A36813449A786A
:10867400042A10D09A78022A15D0032A18D005208B
:1086840006B962B670BD7846FEF73AFAE8E778466E
:10869400FEF736FAE5E7211D2046FFF751FEA288D2
:1086A400A3681344E6E703229A702B600020E7E7EF
:1086B4007846FEF725FA0020E2E738B5044680B193
:1086C400EFF3108572B6A088A16801448B78042B5F
:1086D4000BD08878022814BF0020012005B962B6A7
:1086E40038BD7846FEF70CFAEAE72046FFF738FE75
:1086F4000146EEE738B5044678B1EFF3108572B65B
:10870400A088A16801448878C31EDBB2012B08D875
:108714002046FFF725FE0146F5E77846FEF7F0F917
:10872400EBE7022814BF0020012005B962B638BD6A
:1087340070B50C46064678B194B1EFF3108572B665
:10874400A378012B10D0032B13D121463046FFF719
:108754005AFE05B962B670BD7846FEF7D1F9EBE76B
:108764007846FEF7CDF9E8E721463046FFF766FE86
:10877400EFE77846FEF7C4F9EBE70000014B186811
:10878400704700BFB431002010B5044680B163685F
:108794001BB123680BB1A36813B97846FEF7B0F98F
:1087A400A3685A1E134207D10023E360236110BD5E
:1087B4007846FEF7A5F9EAE77846FEF7A1F9F3E76C
:1087C40070B508B3034609B382680AB3EFF31085A2
:1087D40072B6026980681418DA68944210D01C4694
:1087E4001E685B68013810401A4600FB036015F0F0
:1087F40070F8E3680133E36065B962B6284670BD7A
:1088040005B962B60425F9E70E25F7E70E25F5E765
:108814000925F3E70025F1E770B5F0B10446836854
:10882400EBB1EFF3108572B60369C068834210D0D0
:10883400084621686268A668013E334003FB0211C2
:1088440008B115F046F82369013323614DB962B6C6
:1088540008E005B962B6052504E00E2502E0092505
:1088640000E00025284670BD0246C0F30B0048BB5B
:1088740051B310B401F6FF710C0B144B0221C3F871
:108884000415124BD3F80034002BFAD0014602E051
:1088940002F580520131A14208D20C4BC3F80825DD
:1088A4000A4BD3F80034002BFAD0F1E7074B00222F
:1088B400C3F80425054BD3F80034002BFAD05DF837
:1088C400044B7047102070470920704700E00140B6
:1088D40010F0030F2FD111F0030F2FD182B312F038
:1088E400030F2FD110B49208174B0124C3F8044589
:1088F400154BD3F80034002BFAD002E004300431D5
:108904002246541E52B10B68B3F1FF3FF6D0036008
:108914000D4BD3F80034002BFAD0EFE70A4B0021BB
:10892400C3F80415084BD3F80034002BFAD01046D2
:108934005DF8044B70471022104670471022FBE785
:108944000922F9E70922F7E700E0014000B58DB0FC
:108954000B4B1B7B012B0ED0094A926804928DF8B5
:108964000830039002238DF8043001A8FFF7B0FC0F
:108974000DB05DF804FB024A9268013A0492EEE7F6
:10898400E431002070470000054B00221A609A6011
:10899400DA601A6103490A704FF080725A607047B6
:1089A400E4310020BD31002038B50B4D00242C608B
:1089B4006C60AC60EC602C6101F052F8074B5860BD
:1089C400074A9A60074ADA601C615C61064B1C70B6
:1089D4004FF080736B6038BDE4310020C03100205B
:1089E400158B020000879303F831002008B5084B6B
:1089F4001B7803B108BD0748074B036000F066FD10
:108A0400064800F0C5FF024B01221A70F2E700BFCE
:108A1400BC310020D8310020358C0200C031002048
:108A240010B501F0BBFD154B1B7BFBB9134B9B7BB6
:108A34000BBB124B1A8A41F282639A4204D8104B40
:108A44001B782BB1012300E001231BB908240EE09D
:108A54000023FAE7094B01221A7300241C829A6846
:108A640001329A602046FFF771FF00E0082401F00C
:108A7400D9FD204610BD0824F9E700BFE4310020E9
:108A8400F831002010B501F089FD1F4B5B7B9BB1D1
:108A94001D4B9B7BF3B91C4B1A8A41F282639A42A9
:108AA40004D81A4B1B782BB1012300E001239BB19E
:108AB400012302E00023FAE700231C46FBB1124B1A
:108AC40000225A731B7B4BB1012B0ED07846FEF764
:108AD40017F814E00023F0E70023EEE7FFF7A0FF08
:108AE40068B17846FEF70CF809E0074B00201860DF
:108AF4004FF080725A6018731882FFF727FF01F055
:108B040091FD204610BD00BFE4310020F831002063
:108B140008B5214B1B7B7BB1012B20D07846FDF798
:108B2400EFFF1D4A138A013313821B4B5B8A13B177
:108B3400013B194A538208BD174B1A8A41F28263DA
:108B44009A4204D8154B1B783BB1012300E0012362
:108B5400002BE6D0FFF796FFE7E70023F8E70E4B7C
:108B64001B8A41F28262934204D80C4A127872B191
:108B7400012200E00122002AD3D042F2B012934233
:108B840007D9054B01225A73FFF77CFFCDE700227A
:108B9400F1E7FFF777FFC4E7E4310020F831002064
:108BA40008B5224B1B7B002B31D1204B5B8A13BBB6
:108BB4001AB91E4B9B688B4205D3E2B11B4B9B68D1
:108BC40001338B4217D2194B9B682A338B4220D333
:108BD400164B9B7BEBB9154B996000221A604FF042
:108BE400807159601A8242F6065159825A731A7377
:108BF400FFF7ACFE0DE062B10C4B9B6801338B4276
:108C040007D10A4B01225A73FFF73CFF01E0012B05
:108C140000D008BD002AFCD1044B9B688B42F8D1DC
:108C2400024B01225A73FFF72DFFF2E7E4310020D3
:108C34000378042B00D0704743681B78002BFAD0CC
:108C440010B58468027E437E012A14BF00220122EB
:108C5400416904F11000FFF7A3FF10BD114B1A681E
:108C64005B689A421CD210B50E4B1B7B012B0FD0B4
:108C74000D4B04469A420DD2EFF3108172B6094AA5
:108C84001368581C1060236001B962B6002010BD3F
:108C9400064BEEE7034B01225A73FFF7F3FEEBE7B3
:108CA4000F207047E4310020FFFF7F0000E0FF0049
:108CB40008B538B10D4B01229A730D4A136801337C
:108CC400136008BD0A4B1B685BB1094A1368013B7A
:108CD4001360002BF5D1054B00229A73FFF7D2FEE7
:108CE400EFE77846FDF70CFFEFE700BFE431002023
:108CF400B831002000B58DB0ADF808008DF8102013
:108D0400039103238DF8043001A8FFF7E1FA0DB0B5
:108D14005DF804FB014B9868704700BFE431002004
:108D2400054B1B7B012B02D0034B98687047024B09
:108D340098680138704700BFE4310020044B9B68F9
:108D4400584010F0010F00D0013B1846704700BF97
:108D5400E4310020014B187B704700BFE431002050
:108D64002DE9F041002722E02449BC2303FB04F34E
:108D7400CA5A0132CA520221404602F0EBFB0136C4
:108D84000221404602F0B6FB70B11C4ABC2303FB2F
:108D940004239D68002DE7D0BC2303FB04F3D25ABF
:108DA40001463846A847DFE796B90137FFB2022FDC
:108DB40020D83C46BC2303FB07F308330F4D1D4466
:108DC40005F104080221404602F094FB0026DBE78B
:108DD4000021404602F026FC0828E6D1074BBC22BD
:108DE40002FB0434A368002BDFD000220449384678
:108DF4009847DAE70120BDE8F08100BF0432002083
:108E040014E0030008B5082383731023437300F1AF
:108E14001C0343610323037300F1180303610C3043
:108E240002F0D2FB08BD000008B50378012B06D080
:108E3400022B06D07846FDF763FE002002E02920CD
:108E440000E0014808BD00BF084C010008B50278E5
:108E5400012A07D0022A13D07846FDF751FE4FF4B9
:108E6400FA7308E083685B1A9B0803EB830003EB47
:108E7400C00303F5FA730748984228BF184608BD93
:108E840083685B1A180B044B03FB00F303F5FA73B6
:108E9400F1E700BF60850100084C010038B50446C5
:108EA40001210C3002F026FB054678B1084BC4F8CA
:108EB4009C300023C4F8A0306168FFF7C7FFC4F8F2
:108EC400A800C4F8AC40012384F8B830284638BD63
:108ED400F58F020010B50446FFF7E0FF20B104F15E
:108EE4009C000BF03DFE00B910BD7846FDF708FE6E
:108EF400FAE70000F8B506460C46174615680378ED
:108F0400012B18D11249A1FB043149098900B46825
:108F1400641B8C4200D30C468CB1706825F00305A9
:108F2400F168224629442844FFF7D2FC58B93B682B
:108F34001C443C60F8BD7846FDF7E2FDE2E7784664
:108F4400FDF7DEFDE9E77846FDF7DAFDEFE700BF60
:108F54007D0CCEC7F8B507460C461646156803784F
:108F6400022B16D1114BA3FB04231B0C1B03BC685F
:108F7400641B9C4200D31C467CB1786825F0030531
:108F840021462844FFF770FC58B933681C44346008
:108F9400F8BD7846FDF7B4FDE4E77846FDF7B0FD8B
:108FA400EBE77846FDF7ACFDEFE700BFEB0661C5E4
:108FB40038B505460C4611462378012B06D0022B02
:108FC4000FD07846FDF79CFD002304E0021D2046E7
:108FD400FFF790FFA3686868984214BF002001203F
:108FE40038BD021D2046FFF7B5FFA368F3E7000074
:108FF4002DE9F8438846D1F8A860234B1B7863B960
:109004000546A6F5FA7601F10C090121484602F05D
:1090140071FA074640B1002424E00BF0DDFD002383
:1090240088F8B830BDE8F8837846FDF769FDF2E7C3
:109034000BF0D2FD0121484602F08CFA0023C8F857
:10904400043088F8B830114B186801F03FFB4046F3
:10905400FFF740FFE6E72C1A3846FFF7E5FE204409
:10906400B0420BD8321B39464046FFF7A1FF002817
:10907400DED101F047F9441BEED5ECE70BF0ACFD73
:109084004046FFF727FFCDE700320020FC310020E7
:1090940010B5084801F0FAFA074B18600024022CB6
:1090A40007D8064BBC2000FB0430FFF7ABFE0134AD
:1090B400F5E710BD658D0200FC310020043200206C
:1090C40038B50446EFF3108572B610B9164B1B6819
:1090D40073B18CB1144A136801331360124B1B68CB
:1090E400003318BF0123114A137005B962B638BDA5
:1090F4007846FDF705FDECE70B4B1C68013C1C6052
:1091040034B1EBE7BC2000FB0420FFF7E3FE01349D
:10911400022CE3D8064ABC2303FB042393F8B8309B
:10912400002BF4D1EEE700BF3834002000320020D9
:109134000432002018B1830B024AD05C704700202F
:10914400704700BF24E0030012DF704700B583B00E
:109154001378A3B1022B14D0002110F8013C163B64
:10916400152B31D8DFE803F059303030303030304F
:1091740030303030303030303030302E0F3A517D96
:10918400EBE70721E9E7022901D007291CD110F8F0
:10919400021C013901F0DEFEB0B1264B1B6813F04E
:1091A400400F11D0244B1B68012B0DDD234BD3F84A
:1091B40004350190224A009293222249022002F0AF
:1091C40089FB01E0022902D003B05DF804FB10F82A
:1091D400021C0139C9B210F095FEF5E70229F3D15A
:1091E40010F8021C0139C9B202F0E8FE0028EBD0E5
:1091F400104B1B6813F0400FE6D00F4B1B68012B7C
:10920400E2DD0E4BD3F8043501900F4A0092A622FA
:109214000C49022002F05EFBD6E701884FF6E463B6
:109224009942D1D110F8021C03390230FDF7B6FB84
:10923400CAE700BFB42D0020B02D0020001001406B
:1092440090E0030083E00300BCE0030070B58AB043
:109254000CF03CFA48B3064600238DF8103005ACF8
:1092640005460FCD0FC42B682360727D052A04D9EF
:10927400337D03F00F03072B1ED1174B1A688AB1F5
:1092840004AB0393337DC3F303038DF80430737D80
:10929400062B1BD9063B8DF8053006F11D030293FE
:1092A40001A8904730460CF0F1F90CF02BFA80F04D
:1092B4000100C0B20AB070BD307D04AB063A06F1BD
:1092C4001D0100F00F000AF017FFD6E700238DF808
:1092D40005300293E4E700BF403400200B4B1B78B9
:1092E400032B00D0704700B58DB0084B04221A70D0
:1092F4002C22002101A814F015FB1C238DF8043046
:1093040001A8FEF7E5FF0DB05DF804FB3C34002036
:1093140070B582B0344B1B78002B5AD100285CD036
:10932400067A0F2E01D0062E59D1044604F04CFAC9
:10933400E06870B1FDF7F6FB0DF10700FFF704FFDD
:109344000546002846D19DF80730012B04D002259C
:1093540040E0FDF7F5FBEFE7FDF714FC00F004FB3C
:10936400304601F0B5F8E07800F028F900F096FEF8
:109374000BF078FB1D480CF061FA0BF05FF8FFF777
:1093840087FE00F0EBFC04F0DFF903F0A7FF2046B2
:1093940001F0F8FCFEF7BCFC03F0FAF9FDF7FEFA65
:1093A40008B106281DD112480AF088FE2A200AF0C6
:1093B40019FF2B200AF016FF29200AF013FF1620AC
:1093C4000AF010FF0B4B00221A60074B01221A709F
:1093D40000E00825284602B070BD0E25FAE70725EF
:1093E400F8E70546F6E700BF3C340020519202003E
:1093F400A42D00204034002010B582B01E4B1B78F1
:10940400012B0DD05AB282B3033BDBB2012B2ED811
:109414000BF096FB044658BB174B02221A7027E048
:109424000CF012F901F0C0FCFEF7B4FCFDF7B6FA3B
:109434000446B8B1062815D0104B1B6813F4804FAE
:1094440016D00F4B1B68012B12DD0E4BD3F80435DD
:1094540001900D4A009240F2A7120C49022002F03A
:1094640039FA05E001F060F8D2E7082400E00824A6
:10947400204602B010BD00BF3C340020B42D0020B3
:10948400B02D00200010014028E0030083E0030019
:1094940008B50A4B1B78022B02D00823184608BDD6
:1094A400064B03221A7006480BF0FEFA0346002806
:1094B400F4D07846FDF724FB0023EFE73C3400208A
:1094C400E192020008B5FEF769FC08BD08B5FEF795
:1094D40027FF08BD08B500F0A7FD002008BD7047B0
:1094E400064A136801331360B3F1704F02D0034B83
:1094F40018687047134601221A60F8E744340020C4
:1095040010B5044618B100232360636010BD78468B
:10951400FDF7F6FAF7E738B50C46054668B184B1AD
:1095240000236360EFF3108372B62A686AB16A6835
:1095340054606C6003B962B638BD7846FDF7E0FA52
:10954400EDE77846FDF7DCFAEAE72C60F1E710B5C1
:10955400044658B1EFF3108372B6206808B142682C
:109564002260226832B103B962B610BD7846FDF7B5
:10957400C7FAEFE76260F6E710B5044608B1206861
:1095840010BD7846FDF7BCFAF9E735DF70470000F7
:1095940008B54FF0FF30FFF7F8FFBFF34F8F0549D1
:1095A400CA6802F4E062044B1343CB60BFF34F8FED
:1095B40000BFFDE700ED00E00400FA05072814D819
:1095C400DFE800F0080C1504110F0A066420704748
:1095D40014207047FA2070471E2070474FF4FA7029
:1095E4007047322070474B207047FA20704796200E
:1095F40070470000024B5868103840B2704700BFF3
:1096040000ED00E0034600280FDB5B11084A52F826
:109614002330424200F01F0002F01F0258BF5042A4
:1096240023FA00F000F00100704700F11F03ECE79B
:1096340000E100E046DF7047F8B504460D464B1ED6
:10964400DBB2012B09D8002222616261A261E261CE
:109654002046FFF7EFFF01200AE07846FDF750FAB5
:10966400F1E7CB7B5B00CB73002F14DB0130C0B27E
:10967400A84217D8214611F9207F00230E2BF0D8D9
:10968400CA5CCE185200D2B2767842EAD612CA54D4
:1096940001339BB2F2E794F82F3083F0870384F808
:1096A4002F30E3E7F8BD2DE9F04190B084460C4635
:1096B40096461F4602F10F0636111FFA86F804ADCE
:1096C4000068DCF80410DCF80820DCF80C300FC566
:1096D4000EF00F05B8F1000F02D07DB1002300E0B9
:1096E4000023984663B1012104A8FFF7A5FFB8F150
:1096F400000F1AD0701E000110230EE00123F0E7C2
:109704000221F1E7013B9BB22218D25C10A9194453
:1097140011F8101C4A400DF80320002BF2D100254B
:109724000C950D950E950F9526E0711EADB22A4647
:1097340004EB0111684614F0CCF880230DF80530D1
:109744006B1C03E000220DF8032001330F2BF9DD1D
:1097540010230AE0013B9BB21DF8032010A9194411
:1097640011F8101C4A400DF80320002BF2D1D6E763
:1097740004A8FFF75FFF0135731EAB420FDD28011C
:109784001023002BF4D0013B9BB210AA1A4412F808
:10979400102C2118C95C4A4008A9CA54F1E71023C7
:1097A4000AE0013B9BB210AAD11811F8402C11F821
:1097B400101C4A4008A9CA54002BF2D104A8FFF790
:1097C40039FF0CAC0FCC38607960BA60FB6010B024
:1097D400BDE8F08110B50446134B1B684BB14068DB
:1097E400114B1B685B68C31A002B02DB0E4B196814
:1097F4000DE00D4B1A6862611C600B4A93880133BB
:109804009BB2938063B10123237010BD19464B6949
:109814001BB15A68121A002AF8DB63614C61ECE749
:109824007846FDF76DF9EEE74C34002038B505466F
:109834001CE07846FDF764F96369204A136000234D
:10984400636193889BB2591E89B29180F3B1A36876
:1098540003B302232370A36821692846984700F0C4
:10986400FFF805462378DBB2022B17D0134B1B6895
:109874001BB3124B1B685B685B1B642B1DD50F4B22
:109884001C682378DBB2012BD6D0D2E77846FDF7EB
:1098940037F9DCE77846FDF733F9DAE7E26812B91D
:1098A40000232370E2E76368134463605B1B642B4B
:1098B400F9D42046FFF78EFFD8E738BD4C3400209A
:1098C40010B50446144B1B68834207D0124B1B6827
:1098D400D3B15A69A2420ED01346F9E743690E4A3E
:1098E400136093889BB2591E89B2918063B97846FC
:1098F400FDF706F908E062695A6107498B889BB253
:109904005A1E92B28A8013B10023237010BD784688
:10991400FDF7F6F8F8E700BF4C34002008B5064B15
:109924001B6833B1044B1B680449586800F046F9BE
:1099340008BD00F0A1F9FBE74C3400205D9902005A
:1099440008B500F08DF8FFF771FF00F089F8FFF714
:10995400E5FF012008BD000008B5024B186800F0BF
:10996400B5FE08BD4834002008B5064B00221A6035
:109974005A60054800F08AFE044B186000F063F852
:1099840008BD00BF4C340020459902004834002033
:1099940010B5044600F06EFF80B19CB1A368ABB172
:1099A4002378DBB2012B15D0002363612046FFF737
:1099B40011FF00F055F8FFF7B1FF10BD7846FDF731
:1099C4009FF8EAE77846FDF79BF8E7E77846FDF766
:1099D40097F8E5E77846FDF793F8E5E710B5044610
:1099E40000F048FF50B16CB12046FFF769FF002337
:1099F400636100F035F8FFF791FF10BD7846FDF77D
:109A04007FF8F0E77846FDF77BF8EDE738B50446D4
:109A14000D4600F02FFF70B18CB12046FFF750FFC8
:109A24000023636165602046FFF7D4FE00F018F858
:109A3400FFF774FF38BD7846FDF762F8ECE7784627
:109A4400FDF75EF8E9E708B513F0F8FD00B108BDCD
:109A540013F072FD0028FAD07846FDF751F8F6E7C6
:109A640070B4EFF3108172B6184B1A68184BD3F820
:109A74000455D3F80431012B22D001B962B645EA6A
:109A8400026500266B01EA0E5B1B62EB06025102C3
:109A940041EAD3515802431941EB0600810141EADE
:109AA40093619A01D31A61EB00005B1946EB000045
:109AB40013F580437041DB0B43EA404070BC7047B0
:109AC400034BD3F804550132D7E700BF54340020C8
:109AD4000010014010B50A4B4FF40032C3F848237C
:109AE400C3F80823074B1B682BB1064B1C68FFF710
:109AF400B7FFA04710BD7846FDF702F8F5E700BFB1
:109B04000010014060340020EFF3108172B6264B40
:109B14000022C3F80421254A13680133136001B9F4
:109B240062B6234B1B68002B3DD0214B1A68013AC7
:109B34001A601B68002B36D103F1804303F5883388
:109B4400D3F804251B4B1B689A421ED2EFF31082F4
:109B540072B6154BD3F804350133164909688B42A4
:109B640010D3114BD3F8043502330F49C1F84435EF
:109B740002B962B60C4B4FF40032C3F84423C3F865
:109B8400042370470B4B1B68EFE710B50A4B1B68A7
:109B94002BB1094B1C68FFF763FFA04710BD784643
:109BA400FCF7AEFFF5E77047001001405434002085
:109BB400583400205C3400206034002030B583B079
:109BC4000446002301930D46002936D0244B1D6022
:109BD400FFF746FF031B002B33DB0023590CD8038C
:109BE400204C214A002300194FF0000444EB0101EA
:109BF40013F02AFDEFF31083019372B61B4BD3F8D5
:109C04000435022838BF0220C3F1FF1202F57F4257
:109C1400824218D30344154AC2F844354FF4003342
:109C2400C2F84433C2F80433114A1460114A146070
:109C3400019B03B962B603B030BD7846FCF760FF00
:109C4400C4E7231ACAE7034403F17F4301331A0E1E
:109C5400013207490A6023F07F43064A1360E7E7AD
:109C64006034002020A1070040420F000010014092
:109C7400583400205C340020074B4FF40032C3F802
:109C84004823C3F808230023044A1360044A1360DA
:109C9400044A1360704700BF00100140583400208C
:109CA4005C3400206034002030DF704731DF7047BF
:109CB40010B402684368A2EB7312846883EAF43335
:109CC4000360C1680C444460114481601344C36060
:109CD40018465DF8044B704770B582B00D460646D1
:109CE40008B100240BE07846FCF70AFFF9E79DF879
:109CF40007103019FFF7DAFF9DF807301C44A5421E
:109D04000DD90DF10700FFF7CFFF9DF80730002BA9
:109D1400F7D02A1B9342EAD98DF80720E7E702B06F
:109D240070BD000030B583B00546002401940421C1
:109D34000DEB0100FFF7D0FF074B2B60019B6B601D
:109D4400AB60EB6003E02846FFF7B2FF0134132C4D
:109D5400F9D903B030BD00BFED5EEAF1704748DFCA
:109D6400704749DF70474ADF70470000044B012207
:109D74005A7143F2B0629A6043F69822DA607047EF
:109D8400B0340020094B03221A74094A5A611A6834
:109D940040F6D8639A4204D9054B43F2B0629A6004
:109DA4007047034B40F6D8629A60704790340020A5
:109DB400B034002008B50F4B1B78022B12D0032BB4
:109DC40008D0012B03D07846FCF79AFE0EE002235C
:109DD40003740BE0084B00225A7108499960084942
:109DE400D960827103230374034B4361014B002246
:109DF4001A7008BDC1340020B0340020A0860100D0
:109E0400FF1FA10738B504460025057401234371DB
:109E14000E4A13680133136000F0D2FA0AF056FFB9
:109E240023680B4A1168283101FB03F1094AA2FB9C
:109E34000121A3EB9141084A7839284600F03CFA05
:109E440000B938BD7846FCF75BFEFAE7C43400205D
:109E5400AC34002083DE1B43899D020010B5044608
:109E640000238360C36003680D4A926802608179AD
:109E740091B10121017403B90A4B991A6161B1F5D9
:109E84007A7F01D39A4202D94FF47A736361FFF760
:109E94006DFF0123A37110BDFFF7B4FFF7E700BF07
:109EA400B03400208096980010B50C4631B1C368D8
:109EB4000133C36042690368134403608368013358
:109EC400836001220274426952084261012B0DD061
:109ED400022B19D042690368134417498B4222D8D4
:109EE40040F6D7639A4221D800231DE0B2F5FA7FE9
:109EF40005D040F6D8639A42ECD84361EAE7002CD7
:109F0400F7D100234361E5E7C368022B06D0012B98
:109F1400E0D1002CDED100234361DBE70268064B6D
:109F24009B1A4361D6E7002313B110BD0123FBE75D
:109F3400FFF768FFF9E700BF8096980043791BB9E3
:109F44000D4B00221A70704710B504460AF0DAFE71
:109F540020680A4B1B68283300FB03F3084AA2FB62
:109F64000323A0EB9340783800F05AFA002363717E
:109F7400014B00221A7010BDC0340020AC34002004
:109F840083DE1B4308B5254B01221A71244B1B7831
:109F940013B1244B1B781BB3204B00221A740428E2
:109FA4001AD8DFE800F00314110C07001B48FFF770
:109FB40055FF1CE001211948FFF776FF17E0002147
:109FC4001648FFF771FF12E00AF02CFE0FE000F0D4
:109FD400B9F90AF061FE0AE07846FCF791FD06E063
:109FE40000F090F90D4B18601846FFF7E3FE0B4B99
:109FF4001B7C023BDBB2012B08D9084B1B7C022BD8
:10A0040008D0064800230371103008BD0348FFF749
:10A0140095FFF2E7014B01221A76F2E79034002013
:10A02400C1340020C034002008B50438042814D8F2
:10A03400DFE800F0182614030E00164B1B7E012BDC
:10A044000BD1FFF78EFE40B17846FCF759FD04E0D2
:10A05400104B00221A760AF079FE08BD7846FCF708
:10A064004FFDFAE7FFF782FE0B4840F6D8638360A2
:10A07400FFF779FE0028F0D07846FCF741FDECE7C5
:10A084000548FFF770FE0028E7D07846FCF738FD56
:10A09400E3E700BF90340020B034002010B40E4A2F
:10A0A4000023137013710121517143F2B064946061
:10A0B40043F69824D460094A1060094A1370094A87
:10A0C4001370094A1360094A1371537113601376AC
:10A0D40091715DF8044B7047B0340020AC3400201B
:10A0E400C0340020C1340020C43400209034002047
:10A0F40008B5104B1B7E012B09D05AB21AB1022BA2
:10A1040016D0002008BD0C48FFF729FE40B90B48C3
:10A11400FFF729FE40B9074B02221A760020F1E727
:10A124007846FCF7EDFCF2E77846FCF7E9FCF2E749
:10A134001120E7E790340020899F0200B03400200A
:10A144000B4B1B7C023BDBB2012B0BD9094B1B785D
:10A15400012B09D0022B09D0032B01D0002070471A
:10A16400012070470120704701207047012070478B
:10A1740090340020C1340020014B1868704700BFA0
:10A18400903400200D4B5B790BB90020704710B55B
:10A194000A4B1C680A4B1B68283303FB04F3094A67
:10A1A400A2FB0323A4EB9344783C00F0ABF80346F2
:10A1B400201A00D410BD181BFCE700BF9034002007
:10A1C400AC34002083DE1B43014B5879704700BF39
:10A1D40090340020014B1879704700BF9034002060
:10A1E400024B187E003018BF0120704790340020C5
:10A1F400EFF3108372B6054A527922B1044A4FF440
:10A204008071C2F8001103B962B67047903400201F
:10A2140000E100E008B5054B1B7E022B00D008BD11
:10A22400034B01221A70FFF7E3FFF8E79034002094
:10A23400C134002008B5074B1B7E022B00D008BD9B
:10A24400012804D0044A1370FFF7D2FFF7E7032371
:10A25400F8E700BF90340020C134002008B5094B52
:10A264001B782BB148B9084B1B7813B1012300E0CC
:10A274000023044A107013B908BD0023F9E7FFF75F
:10A28400B7FFF9E7C0340020C134002010B4094BF3
:10A2940000F15002002443F8224000F1100401228E
:10A2A400A240C3F8042300F5A87043F820105DF819
:10A2B400044B704700800040022817D810B5EFF314
:10A2C40010840C4B1C6072B60B4B43F820200B4BD4
:10A2D400002243F820200A4B1B7823B9054B186849
:10A2E40030B962B610BDFFF7D1FFF7E7072070471A
:10A2F4000020F7E7D8340020C8340020E4340020DC
:10A30400D4340020EFF310820A4B1A6072B60A4B61
:10A314001B7863B1094B0022C3F84C210122DA6493
:10A32400D3F84C05034B1B6803B962B67047044B62
:10A334001868F7E7D8340020D434002000800040A7
:10A34400DC3400202DE9F041002411E00027174BF4
:10A3540043F82470012303FA05F5154EC6F8085393
:10A36400FFF7D0FFC04704F1500346F823700134CF
:10A37400022C18D804F150030D4A52F82330002B54
:10A38400F5D0D2F8043304F11005EB4013F0010FBB
:10A39400EDD0064B53F82480B8F1000FD6D178469F
:10A3A400FCF7AEFBD2E7BDE8F08100BFC834002063
:10A3B40000800040014B1B6818447047E0340020C3
:10A3C40010B50023022B0DD8104A03F5A871002004
:10A3D40042F8210003F1500142F8210052F82120F3
:10A3E4000133EFE70A4B1B681BB90A4B4FF4807229
:10A3F4001A60094B01221A70FFF732FB0446FFF77B
:10A4040081FF201A054B186010BD00BF008000407A
:10A41400D834002000E100E0D4340020E0340020EF
:10A424000023022B08D800220B4941F823200B49B2
:10A4340041F823200133F4E7094B1860094B00224B
:10A444001A70094B4FF0FF32C3F80823074B4FF43F
:10A454008072C3F880217047C8340020E43400209F
:10A46400DC340020D43400200080004000E100E00F
:10A4740008B503783BB1012B04D1436813B1C1681B
:10A484008068984708BD4368002BFBD080689847D4
:10A49400F8E70000044B1B780F2B04D0034B4FF458
:10A4A4008022C3F8002170473836002000E100E024
:10A4B40010B501460548FEF783F910B1042420467F
:10A4C40010BD0446FFF7E6FFF9E700BFF0340020B3
:10A4D40010B5104C20701048104B036010234360DB
:10A4E4008360FEF751F90E48FFF70AF823780F2B23
:10A4F4000FD0072B0AD8EC221A4112F0010F05D015
:10A504005B01DBB2074A82F8123302E07846FCF7BB
:10A51400F7FA10BD38360020F0340020043500204E
:10A524003C36002000E100E008B50F4B1B780F2BF0
:10A5340019D00E4B93F812335A09EC23134113F03C
:10A54400010F0DD00A4B9B682BB1094A136843F4E1
:10A554008023136007E0054B4FF480221A6002E069
:10A564007846FCF7CDFA08BD3836002000E100E05B
:10A57400705B002030B585B00C46054648B1002319
:10A584008DF80030019502946846FFF791FF05B0FD
:10A5940030BD7846FCF7B4FAF1E7000038B5EFF3C4
:10A5A400108472B6194A1368591C116003BB184B06
:10A5B4001B780F2B1CD0EFF3108272B6154B9B68DF
:10A5C400E3B9144901238B60134BD3F88000134D76
:10A5D40028400860C3F88050D3F8840048604FF0E6
:10A5E400FF31C3F884100E4B0021197002B962B612
:10A5F400064B1B6833B104B962B638BD084B012160
:10A604001970F3E77846FCF77BFAF4E70436002088
:10A6140038360020705B002000E100E0FC06FFBD3E
:10A624003936002010B5EFF3108472B6124B1B6854
:10A63400F3B1114A1368013B1360B3B90F4B1B7894
:10A644000F2B12D00E4B1A780E4B9B686BB162B96C
:10A65400EFF3108172B60B4B18680B4A1060586800
:10A66400506000229A6001B962B604B962B610BDA6
:10A674007846FCF745FADCE704360020383600203B
:10A6840039360020705B002000E100E010B504467C
:10A6940080B10C4B1B68092B10D8EFF3108272B6F3
:10A6A400084B1868411C1960074B43F8204002B955
:10A6B40062B610BD7846FCF723FAEAE77846FCF761
:10A6C4001FFAEAE7083600200C36002038B50446A5
:10A6D4000D4B1B68834213D9EFF3108572B66109E1
:10A6E4000A4A04F01F04012303FA04F452F8213047
:10A6F400234342F82130FFF7CDFE05B962B638BDD9
:10A704007846FCF7FDF9E7E70836002034360020E8
:10A7140070B50D461646044658B175B1EFF3108373
:10A7240072B6A560E66000222274246003B962B6A2
:10A7340070BD7846FCF7E4F9EFE77846FCF7E0F9FA
:10A74400ECE7000038B5044650B1A36863B1EFF3F9
:10A75400108572B6237C5BB1112005B962B638BD91
:10A764007846FCF7CDF9F0E77846FCF7C9F9EEE74F
:10A774000123237421460348FEF7CDFEFFF78AFE2A
:10A784000020EAE73C36002010B5044608B1207CDE
:10A7940010BD7846FCF7B4F9F9E7000070B584B051
:10A7A4002C4B1B7823B901252A4B1D7000240AE089
:10A7B4007846FCF7A5F9F6E7274B53F82430984779
:10A7C4000646F0B10134254B1B68A3421ED961092A
:10A7D400234A52F8213004F01F00C34013F0010F44
:10A7E400F0D0EFF3108672B6012303FA00F052F8AA
:10A7F400213023EA000342F82130002EDCD162B676
:10A80400DAE72046FFF762FF3546DBE71548FEF737
:10A814009EFE0AE07846FCF773F9A368E06898475F
:10A82400002323740F48FEF792FE20B10468237CB2
:10A83400002BF2D1EEE769460B48FDF7EDFF18B99E
:10A844006846FFF715FEF6E7024B00221A70284609
:10A8540004B070BD443600200C36002008360020B9
:10A86400343600203C360020F034002008B5FFF7D1
:10A8740095FF08BD00B583B0FEF7BCFE8DF8070058
:10A884009DF807305BB213F1100F18D09DF8073014
:10A894005BB2002B21DB03F1604303F5614393F8C2
:10A8A40000335B090093154B1B78009A934220D028
:10A8B400009A934217D3002003B05DF804FB0F4BBA
:10A8C4001B780F2B01D10120F6E71220FEF79AFE28
:10A8D40008B10020F0E70120EEE703F00F03084A77
:10A8E400D35C5B09DEE71220FEF78CFE18B1002072
:10A8F400E2E70120E0E70120DEE700BF3836002070
:10A9040014ED00E046DF704770B58CB003460E4688
:10A9140015466C46006859689A68DB680FC430684D
:10A924007168B268F3680FC46846FFF7EBFF08ACC0
:10A934000FCC28606960AA60EB600CB070BD08B5EC
:10A94400FEF7B1FE08BD08B501F05CF908BD08B515
:10A9540001F091F908BD38B5032900F29380DFE8CE
:10A9640001F0023535671970817A5A7861F306026D
:10A974005A70C17AD2B261F3C7125A70C168C1F376
:10A98400074201F47F442243090401F47F010A438E
:10A9940000219A70C2F30724DC70120C1A71048926
:10A9A400220A42EA0422A3F80520D9711972016926
:10A9B4000A0202F47F0242EA0162080A00F47F40BC
:10A9C400024342EA1162C3F8092038BD197059786C
:10A9D40001F0800162F3C7115970C168C1F30742E5
:10A9E40001F47F442243090401F47F010A439A706D
:10A9F400C2F30721D970120C1A7101890A0A42EABA
:10AA04000122A3F8052041880A0A42EA0122A3F898
:10AA1400072001690A0202F47F0242EA0162080A7D
:10AA240000F47F40024342EA1162C3F80920CCE7F4
:10AA3400197000245C70C168C1F3074201F47F45BA
:10AA44002A43090401F47F010A439A70C2F30721DF
:10AA5400D970120C1A7101890A0A42EA0122A3F878
:10AA64000520DC711C7201690A0202F47F0242EAC9
:10AA74000162080A00F47F40024342EA1162C3F80B
:10AA84000920A2E77846FCF73BF89EE770B584B04E
:10AA94000E461446054668B162B100230093019343
:10AAA400029303932346324629466846FFF747FF3D
:10AAB40004B070BD7846FCF723F8EEE7F0B585B036
:10AAC4000F4614461D46064618B112B10BB10B9B36
:10AAD40013B97846FCF714F86B463A4631462046DB
:10AAE400FFF72DFF0B9B9DF8282029466846FFF7AA
:10AAF40026FF05B0F0BD00002DE9F0418EB00E46F2
:10AB040014469846054608B101B113B97846FBF7D7
:10AB1400F7FF002C4ED0102C50D82A4B1B680493FE
:10AB240005AA042104A8FFF7B1FF6B4610222946A9
:10AB340005A8FFF704FF2246314605A812F0C9FE16
:10AB44000EAB2344012203F8242CA21805AB92B2C5
:10AB540019466846FFF7F3FE9DF8233003F07F03A0
:10AB6400454605F8013B2246314609A812F0B1FEDC
:10AB740004F110070EAB1F44022307F8243C1134E0
:10AB8400A4B22B46224605A96846FFF7D8FE05AEB7
:10AB940028686968AA68EB680FC6032307F8243C91
:10ABA40008F11103224605A96846FFF7C8FE0EB056
:10ABB400BDE8F0817846FBF7A3FFACE77846FBF7E6
:10ABC4009FFFAAE7E8E0030070B588B00D4606468B
:10ABD40000B3F9B1114C6368039304AA042103A8D8
:10ABE400FFF754FF04AB102231461846FFF7A7FEC7
:10ABF400083494E8030001908DF8081004AB052292
:10AC040001A91846FFF79BFE06AB03CB28606960D9
:10AC140008B070BD7846FBF773FFDBE7E8E003009C
:10AC240070B586B00D460646F0B1E9B1104C236903
:10AC3400019302AA04210DEB0100FFF727FF02ABE9
:10AC4400102231461846FFF77AFE6369009302AB7F
:10AC5400042269461846FFF772FE9DF8173003F088
:10AC64003F032B7006B070BD7846FBF749FFDDE764
:10AC7400E8E0030010B5044678B123789BB1E2689C
:10AC8400B2F1807F11D2E27A0AB1022B0FD094F98B
:10AC94000A30002B05DB012006E07846FBF730FF85
:10ACA400EBE7002000E0002010BD0020FCE70020BE
:10ACB400FAE730B587B00446037C8DF800300268AB
:10ACC4008368D27A32B30822134409330193236888
:10ACD400029363680393E368049305A9684601F04B
:10ACE4003FFAE0B1237C012B09D02568FEF718F860
:10ACF400286120680C30FDF7B1FF054660B9216872
:10AD0400059800F000FA059B093363610025284685
:10AD140007B030BD0422D7E701F0A8FAF7E704250D
:10AD2400F5E7000070B582B004466946008909F071
:10AD340041F918B10025284602B070BD064601202D
:10AD440002F030FD05460028F5D0A37A012B14D972
:10AD54002378012B09D00A4B1B68002BEBD0A27A75
:10AD64006188208998470546E5E76946608809F0C7
:10AD740021F90028EFD03546DDE73546DBE700BF93
:10AD84004836002008B548B14268064B1A60FDF702
:10AD94000BFEFDF7F7FD01F035FF08BD014B002266
:10ADA4001A60F4E74836002008B5FDF71FFE01F0ED
:10ADB40069FF08BD10B5044668B123687BB12368F8
:10ADC4005B6983B1237C012B11D8E3689BB12046D6
:10ADD400FFF76FFF10BD7846FBF792FEEDE778466C
:10ADE400FBF78EFEEBE77846FBF78AFEEAE7784648
:10ADF400FBF786FEE9E77846FBF782FEE7E700000B
:10AE0400F0B5C7B00546E8B16B69FBB12B680BB36D
:10AE14002B685B6913B3686900F0DBF90446264BC1
:10AE24001B6813F0020F03D0244B1B68042B19DC9E
:10AE340000232246A968286800F012FB01F0EEF90D
:10AE440047B0F0BD7846FBF75BFEDDE77846FBF7DD
:10AE540057FEDBE77846FBF753FED9E77846FBF766
:10AE64004FFED8E700231C2B0FD8E25C14490E6870
:10AE740010095900375C05A800F8137002F00F029E
:10AE84000131B25C42540133EDE705AA00238DF889
:10AE94004E3003F1804303F58833D3F8043502922E
:10AEA400084A0192084A00924FF494720749052017
:10AEB40000F010FDBCE700BFB42D0020B02D002031
:10AEC400B82D002060E10300F4DC030053E103002B
:10AED40070B588B004460E461546837A013B8372EA
:10AEE400029004924FF0FF330393DF230593012371
:10AEF4008DF8183002A8FFF7DCFE98B1104B1B68E0
:10AF040013F0020F16D00F4B1B68012B12DD0E4BF2
:10AF1400D3F804350D4A0092A7220D49022000F00F
:10AF2400D9FC07E02A463146079812F0D2FC02A861
:10AF3400FFF766FFA37A0133A37208B070BD00BFA8
:10AF4400B42D0020B02D00200010014068E1030062
:10AF540053E10300F0B5D5B0002800F0AF800546FA
:10AF640017460E4600F039F9421B29464CA812F048
:10AF7400B0FC534B1B6813F0020F31D0514B1B68CC
:10AF8400042B2DDDB646802E28BF4FF0800E002303
:10AF9400734510D2EC5C4C4A11682209580011F830
:10AFA40002C005AA02F813C004F00F040130095DC1
:10AFB40011540133ECE705AA002302F81E3003F113
:10AFC400804303F58833D3F8043502923F4A019253
:10AFD4003F4A009240F24D123E49052000F07AFCAF
:10AFE400002300934CAB2A46314646A800F0F0F902
:10AFF400044610B1204655B0F0BD46A8FFF73AFE0E
:10B004000028F7D02E4B1B6813F0020F30D02D4BC5
:10B014001B68042B2CDDB446802E28BF4FF0800C17
:10B024000FE04CAB1B5D284A106819096200455CAF
:10B0340005A901F8145003F00F030132C35C8B54CB
:10B0440001346445EDD305AA002302F81C3003F152
:10B05400804303F58833D3F8043502921E4A0192E3
:10B064001B4A00924FF4AB721A49052000F032FCDF
:10B074004B9BFBB1314646A800F0A3F8C5B23B4652
:10B0840046AA29460DF23910FDF78EF8044649996F
:10B09400BDF82001FBF7B2FD394646A8FFF742FE92
:10B0A4000028A7D03B462A460DF2391146A8FFF7DF
:10B0B4000FFF9FE77846FBF723FDDBE70E2499E7B4
:10B0C400B42D0020B02D0020B82D002000E1030095
:10B0D400F4DC030053E1030010E103004B78DB09C7
:10B0E400C3724B7803F07F0383728A78CB781B0298
:10B0F40043EA02430A791343C3604A798B7943EAEA
:10B1040002230381704738B50D460446002840D019
:10B11400002D42D02889FEF70DF8012841D195F978
:10B124000A30002B41DBEB68B3F1807F41D26B69BD
:10B13400002B42D02B6903F00102237803F07F0334
:10B1440043EAC21323706A69127803F0800302F0A1
:10B154007F0213432370EA7A637803F07F0343EAA0
:10B16400C213DBB26370AA7A03F0800302F07F0299
:10B1740013436370EB681A0CA2701A0AE27023710D
:10B184002B891A0A6271A3716B881A0AE2712372FD
:10B1940038BD7846FBF7B4FCBAE77846FBF7B0FC59
:10B1A400B8E77846FBF7ACFCB9E77846FBF7A8FCB0
:10B1B400B9E77846FBF7A4FCB9E77846FBF7A0FCAF
:10B1C400B8E7C37A1BB10820081A0938704704206D
:10B1D400FAE709387047073070470130704770B597
:10B1E40088B004460D461646002300938DF80430BB
:10B1F4000269130203F47F0343EA0263110A01F4B0
:10B204007F410B4343EA1263CDF805302846FFF72C
:10B21400E2FF0368CDF8093082888379ADF80D2008
:10B224008DF80F30606904AA69461130FFF76CFB92
:10B234003046FFF7D2FF04462846FFF7CEFF062329
:10B244004BB1013B9BB2C25C08A9194411F8101C14
:10B254004A40E254F4E708B070BD00002DE9F04123
:10B26400D2B004460D4690461E469DF864710023F4
:10B274008DF84731ADF8283149934EAB46931046CB
:10B28400FFF7A9FF47903046FFF7A5FF4B90589B67
:10B294006361324641462046FFF7A1FF314620460E
:10B2A400FFF71CFF2089FDF745FF012811D1A5F107
:10B2B4000902E37A23B108239A4203D2002309E066
:10B2C4000423F9E7E1682089FBF772FCC8B901237C
:10B2D40000E000235BB3E37AABB10823DBB28DF863
:10B2E4003431ED1A073DADB2ADF82051479B1D44F2
:10B2F4004C955FB1012F08D07846FBF701FC00277D
:10B3040004E00023E6E70423E8E703274EAB00222A
:10B3140039462046FFF71FFB6369013345930DF25D
:10B32400471145A8FFF713FB9DF8473123B99DF852
:10B33400470152B0BDE8F081F379307A40EA032046
:10B344006080FDF7F7FE20701B4B1B6813F0020FA3
:10B35400EDD01A4B1B68032BE9DDBDF82061802E6C
:10B3640028BF802600230FE04B9AD25C14490C6856
:10B3740010095900255C04A800F8135002F00F02CC
:10B384000131A25C42540133B342EDD304AA002339
:10B3940002F8163003F1804303F58833D3F80435FB
:10B3A4000292084A0192084A0092DF2207490420C7
:10B3B40000F090FABBE700BFB42D0020B02D0020B0
:10B3C400B82D0020D8E10300F4DC0300CBE1030036
:10B3D4002DE9F04784B00F46154698469DF8309005
:10B3E400064618B112B10BB19A4202D17846FBF766
:10B3F40087FBA7F10903142B2ED82878C009FDF781
:10B404009DFC30610023736195F800A00AF07F0A67
:10B414000293039317E00134012C12D804AB03EB1D
:10B42400840353F8083C63B1CDF804900093434679
:10B434002A4639463046FFF711FF0028EBD000209A
:10B444000BE0029B33B103AA02A9504608F0C2FCE8
:10B454000024E1E7052000E0092004B0BDE8F087FE
:10B46400F0B58FB00C4616461D46074650B16EB176
:10B47400012D0FD89DB1012D10D07846FBF740FB6C
:10B4840000250CE07846FBF73BFBF0E77846FBF73A
:10B4940037FBEDE77846FBF733FBEBE703250AAB15
:10B4A400002229463846FFF756FAFB7A03B30823ED
:10B4B4008DF824307B69013301930AAB0293304643
:10B4C400FFF789FE03900790A31C9BB2ADF81030E0
:10B4D4000022ADF8182005921844089001A8FFF73F
:10B4E40032FA324631463846FFF779FE0FB0F0BDE6
:10B4F4000423DDE738B50D460446C8B12378AB42D2
:10B504001AD9EDB962682378134413F8013CA17881
:10B514000B44DBB212789B1ADBB2CBB16368585D83
:10B52400A378013B1840A368627802FB003038BD61
:10B534007846FBF7E5FAE1E77846FBF7E1FAE0E75E
:10B544006268531913F8013C525D9B1ADBB2E4E7BD
:10B554000020ECE738B50C460546A0B12B78A34291
:10B5640015D9C4B96A682B78134413F8013CA97837
:10B574000B44DBB212789B1ADBB21BB16A68135D11
:10B584000133135538BD7846FBF7BAFAE6E7784637
:10B59400FBF7B6FAE5E76A68131913F8013C125D84
:10B5A4009B1ADBB2E9E710B5044640B100232278C8
:10B5B4009A4208D962680021D1540133F7E77846EA
:10B5C400FBF79EFAF2E710BD10B5044643786BB161
:10B5D4002378012B0ED9A36883B1636893B1A37850
:10B5E400A3B15A1E134217D0002310E07846FBF78C
:10B5F40087FAEDE77846FBF783FAECE77846FBF742
:10B604007FFAEAE77846FBF77BFAE8E700232BB1F9
:10B614002046FFF7C8FF10BD0123F8E77846FBF783
:10B624006FFAF5E738B50C46054678B12B78A34296
:10B6340010D99CB96A682B78134413F8010CAB78C1
:10B644001844C0B21378C01AC0B238BD7846FBF7AC
:10B6540057FAEBE77846FBF753FAEAE76B681A19EF
:10B6640012F8010C1B5DC01AC0B2EEE728B108B590
:10B6740029B1FFF7D5FA002008BD0E2070470E202F
:10B68400FAE770B179B110B582B00B4600248DF899
:10B69400074001220DF10701FFF72EFA204602B000
:10B6A40010BD0E2070470E207047000000B330B567
:10B6B4008BB00546F1B10C461031FFF785FA0E4BFD
:10B6C40009930E4B93E803000790ADF8201003AAEA
:10B6D400042109A8FFF7DAF901940623009307ABC4
:10B6E40003AA10212846FFF7E9F900200BB030BD6A
:10B6F4000E2070470E20F9E76E6B626BECE10300DD
:10B7040010B330B587B0044601B30D46104B019316
:10B7140002AA04210DEB0100FFF7B8F902AB1022D5
:10B7240021461846FFF70BF99DF816301B0203F467
:10B734007C536FEA43436FEA53439DF81720134346
:10B744002B80002007B030BD0E2070470E20F9E793
:10B754007674616470B50E46044648B141B12368FD
:10B76400B34209D0256865B926600023336017E029
:10B774007846FBF7C5F9F2E77846FBF7C1F9F1E73C
:10B7840025462C682CB1B442FAD17846FBF7B8F9B7
:10B79400F6E735B12EB1B54202D02B6833602E6086
:10B7A40070BD7846FBF7ACF9F5E738B505460C46AD
:10B7B40049B140B12A68BAB1A24209D123682B60C9
:10B7C400002020600FE07846FBF79AF9F2E71A466A
:10B7D40013680BB1A342FAD142B1A34208D1236842
:10B7E40013600020206038BD0520FCE70520FAE73F
:10B7F4000520F8E72DE9F0410E461746054608B145
:10B8040001B112B97846FBF77BF92B68B34204D037
:10B814002C6834B14FF0000809E07846FBF770F962
:10B82400F6E72E60002030600FE0A0462C4654B1AD
:10B8340031462046B84730B92568AE42F5D178463E
:10B84400FBF75EF9F1E714B10F20BDE8F081B8F120
:10B85400000F09D046B1B04504D0D8F800303360A9
:10B86400C8F800600020F0E77846FBF749F9F2E7F2
:10B8740030B583B0184606AC54F8045B00920B460E
:10B884000246054900200AF0CBFB22462946002047
:10B894000AF0DAFA03B030BDF4E10300034B186098
:10B8A400034B1960034B1A60704700BFB42D00208E
:10B8B400B02D0020BC2D002030B583B0044C24688A
:10B8C40024B1079D0195069D0095A04703B030BDA6
:10B8D400BC2D002030B585B008AC54F8045B03944B
:10B8E40001940095FFF7E8FF05B030BD2DE9F04F56
:10B8F40085B00F4691460093834650B10120FDF771
:10B90400DFFBFCF73BFF01904FF0000AD046012516
:10B914009CE07846FBF7F4F8F0E7019901F58051D3
:10B9240002910AF10101914213D0327816447288CF
:10B93400013A92B247F6FE618A420ED84EB1019A9C
:10B94400131D107972880299184400F0B9FB00B1F4
:10B954000290019B0433029E89E003F500533446B0
:10B9640003951D4617E07846FBF7CAF816E024F461
:10B974007F6424F00F0404F58054237823449D420B
:10B984001DD99E421ED25A88013A92B21C4647F6ED
:10B99400FE618A4210D92388002BE4D0238804EB6B
:10B9A400830323F47F6222F00F029342DFD0628884
:10B9B400B2F5FE4FE3D1DAE7039D1E46BEE7039DD1
:10B9C4000026BBE7039D0026B8E7002343B108F136
:10B9D4000108B9F1000F03D000992046C847054675
:10B9E400238823B3238804EB830323F47F6222F0A8
:10B9F4000F0293421FD06288B2F5FE4F1BD01C4643
:10BA0400B44221DA012D1FD16288531E9BB247F63E
:10BA1400FE618B42D9D837B179883B884A401342BA
:10BA240003D00023D2E70123D0E70123CEE77846F1
:10BA3400FBF766F8D6E724F47F6424F00F0404F5DA
:10BA4400805423782344DAE70AF1010ADBF8102052
:10BA540052450FD9012D0DD1DBF80C4004EB0A330C
:10BA640003F580560199096899423FF456AF1C7852
:10BA74001C44C5E70020FDF723FB404605B0BDE8A4
:10BA8400F08F46DF70472DE9F04707460E4685895B
:10BA9400012404E0A5EB0905ADB20134A4B225B339
:10BAA400230A43EA0423F3833046FFF7EAFFA94657
:10BAB400102D28BF4FF01009D7F81880601E000120
:10BAC400D7F808E006F1200C5FFA89F94B46002B01
