:020000022000DC
:1060000000F003206D630200556302005763020035
:10601000596302005B6302005D6302000000000040
:106020000000000000000000000000005F630200AC
:106030006163020000000000636302006563020008
:106040006763020067630200676302006763020020
:106050006763020067630200818A020067630200CF
:1060600067630200676302004D7A03006763020002
:1060700067630200676302006763020067630200F0
:1060800067630200D903040059D502006763020068
:106090003D0404006763020015A303006763020068
:1060A00067630200676302006763020067630200C0
:1060B0006763020067630200000000000000000048
:1060C00067630200676302006763020067630200A0
:1060D0006763020067630200676302006763020090
:1060E000676302006763020067630200000000004C
:1060F0000000000067630200000000006763020008
:10610000000000000000000000000000000000008F
:10611000000000000000000000000000000000007F
:10612000000000000000000000000000000000006F
:10613000000000000000000000000000000000005F
:10614000000000000000000000000000000000004F
:10615000000000000000000000000000000000003F
:10616000000000000000000000000000000000002F
:10617000000000000000000000000000000000001F
:10618000000000000000000000000000000000000F
:1061900000000000000000000000000000000000FF
:1061A00000000000000000000000000000000000EF
:1061B00000000000000000000000000000000000DF
:1061C00000000000000000000000000000000000CF
:1061D00000000000000000000000000000000000BF
:1061E00000000000000000000000000000000000AF
:1061F000000000000000000000000000000000009F
:10620000344935480A1A02D0072291438D46334952
:1062100033480A1A06D00722914381F309880222E3
:1062200082F314882F483049304A00F042F8304851
:106230003049314A00F03DF830483149314A00F0E8
:1062400038F831483149324A00F033F831483249A0
:10625000324A00F02EF832483249334A00F029F829
:1062600032483349334A00F024F833483349002296
:1062700000F02AF832483349002200F025F832486D
:106280003249091A082902DB0022026041601F48D6
:106290001F49884205D00268043003B4904703BC0C
:1062A000F7E700208646EC4600200021284A904768
:1062B000FEE7884207D0521A05D0037801300B70F0
:1062C0000131013AF9D17047884202D002700130A1
:1062D000FAE7704700F0032000E8032000F00320F5
:1062E00000F00320F82B0400A02D0020CC2E00206D
:1062F000A4630200A463020048090400F82B040010
:10630000A02D0020A02D0020340A0400340A04002F
:10631000340A0400340A0400340A0400340A040075
:10632000340A0400340A0400F62B0400242D04006F
:10633000CC2E0020CC2E0020CC2E0020D0540020CB
:10634000D0540020D0540020D0540020D058002039
:106350004D720200FEE7FEE7FEE7FEE7FEE7FEE71E
:10636000FEE7FEE7FEE7FEE7704700BF094880470B
:1063700009484FF007018843854608488047084888
:10638000016841F470010160BFF34F8FBFF36F8F5D
:10639000FFF736BF6963020000F00320C9A30300C2
:0463A00088ED00E0A4
:1063A40041DF704708B5804708BD000008B5034ABF
:1063B4007D21032014F0FEF808BD00BFF80D040091
:1063C4000B7823BB124B1B6813F4804F1FD0114B67
:1063D4001B68032B1BDD10B584B00F4BD3F80435B9
:1063E4004A685088097B5269147874B992F90D206F
:1063F400039202910190094A009240F2491208491D
:10640400042008F0DBF804B010BD0022F0E7704768
:10641400402E00203C2E002000100140280B0400D8
:10642400430E040030B5C7B0734B1B6813F4804FA0
:1064340003D0724B1B68032B30DC6F4B1B6813F4C7
:10644400804F03D06D4B1B68032B33DC6A4B1B68F6
:1064540013F4804F03D0694B1B68032B3DDC664B60
:106464001B6813F4804F03D0644B1B68032B60DC60
:10647400614B1B6813F4804F04D0604B1B68032BE3
:1064840000F382805C4B1B6813F4804F04D05B4B99
:106494001B68032B00F3A38047B030BD584BD3F8DF
:1064A4000435584A00924FF415725749042008F0F5
:1064B40085F8C2E7524BD3F80435544A1188508802
:1064C400D288039202900191514A009240F25622DE
:1064D4004D49042008F072F8B8E700230F2B12D8B6
:1064E4004A4A1A4492F82C204A490C681009590067
:1064F400255C05A800F8135002F00F020131A25CDC
:1065040042540133EAE705AA00238DF8343003F13D
:10651400804303F58833D3F8043502923E4A01924E
:106524003E4A009240F257223749042008F046F8C8
:1065340095E700230F2B11D8344A1A44127B3549AE
:106544000C6810095900255C05A800F8135002F0E6
:106554000F020131A25C42540133EBE705AA002388
:106564008DF8343003F1804303F58833D3F80435D0
:1065740002922B4A0192294A00924FF41672224940
:10658400042008F01BF873E700230F2B11D81F4ACF
:106594001A44127F1F490C6810095900255C05A88C
:1065A40000F8135002F00F020131A25C425401338F
:1065B400EBE705AA00238DF8343003F1804303F59B
:1065C4008833D3F804350292164A0192134A009292
:1065D40040F259220C49042007F0F0FF52E7084B1F
:1065E400D3F80435104A009240F25A220649042096
:1065F40007F0E4FF50E700BF402E00203C2E0020AF
:1066040000100140C80B0400430E0400102F0020AA
:10661400E40B0400442E0020280C0400340C040075
:106624003C0C0400480C0400540C040003780E2BAA
:1066340000D0704700B583B0104B1B6813F4804F33
:1066440003D00F4B1B68042B05DC0E4B1B7873B176
:1066540003B05DF804FB0C4BD3F804350B4A0092ED
:106664004FF4D3720A49052007F0A8FFEDE7FFF7BE
:10667400D9FE044B01221A70EAE700BF402E002025
:106684003C2E00204C2F002000100140600B040021
:10669400430E04000C4B1B6813F4804F03D00B4BC8
:1066A4001B68032B00DC704700B583B0084BD3F89C
:1066B4000435084A009289220749042007F07EFF26
:1066C40003B05DF804FB00BF402E00203C2E0020E8
:1066D400001001404C0E0400430E040000B583B0CA
:1066E400194B1B6813F4804F03D0184B1B68032B02
:1066F40012DC174B4FF6FF725A809A801A801548A5
:1067040016F0B8F9A0B9144A0021144819F07AFB1C
:10671400A0B903B05DF804FB114BD3F80435114A5A
:1067240000924FF401721049042007F047FFE0E79C
:106734000E4A4FF4037113F03DFFE4E70B4A40F2B5
:106744000D2113F037FFE4E7402E00203C2E0020FB
:10675400CC2E002075670200C5630200D42E0020F1
:1067640000100140FC0E0400430E0400F80D040068
:1067740070B582B004460D4616460E4B1B6813F4E2
:10678400804F03D00C4B1B68032B06DC3246294692
:10679400204601F001FF02B070BD084BD3F8043568
:1067A400074A00924FF4AF720649042007F006FF2F
:1067B400ECE700BF402E00203C2E002000100140DA
:1067C4004C0A0400430E040000B583B0104B1B6850
:1067D40013F4804F03D00F4B1B68032B08DC0021FC
:1067E4000D4B19700E2002F073F803B05DF804FB32
:1067F4000A4BD3F804350A4A52880192094A009296
:1068040040F223120849042007F0D8FEE7E700BF4E
:10681400402E00203C2E00200C2F002000100140B0
:10682400102F0020640A0400430E040000B583B056
:106834000E4B1B6813F4804F03D00D4B1B68032BC6
:1068440008DC00210B4B19700D2002F041F803B055
:106854005DF804FB084BD3F80435084A00924FF462
:106864009A720749042007F0A9FEEAE7402E0020A7
:106874003C2E00200C2F0020001001407C0B040053
:10688400430E040010B582B0044617491AF001F80B
:1068940020B31649204619F0FCFF10B314492046D2
:1068A40019F0F7FF08B9134819E0134B1B6813F4E8
:1068B400804F03D0114B1B68002B04DA784602F09A
:1068C40073FA00200BE00E4BD3F804350D4A009206
:1068D400FC220D49002007F071FEEFE70B4802B0DF
:1068E40010BD0A48FBE700BF580F0400740F0400F2
:1068F400900F0400380F0400402E00203C2E00208E
:1069040000100140B00F0400430E04001C0F0400EB
:1069140000B583B0624B1B78002B40F0A980614B1B
:106924005A881B889A4229D25F4B1B6813F4804F04
:1069340003D05E4B1B68032B14DC5A488368019315
:106944000023009300F11C020221808801F07CFEE8
:1069540001210E2001F0BCFF514B01221A7003B03B
:106964005DF804FB524BD3F80435524A00924FF4BD
:10697400B8725149042007F021FEDEE713BB4A4BED
:106984001B6813F4804F03D0484B1B68032B0DDCAA
:1069940003234A4A4349C988022000F0E7FF01F073
:1069A40023F801210D2001F093FFD5E7404BD3F8E4
:1069B4000435434A00924FF4BD723F49042007F066
:1069C400FDFDE5E71E2B3ED8374B1B6813F4804FC3
:1069D40003D0364B1B68032B1CDC324B9868FFF743
:1069E40051FF384B1860304B1B6813F4804F03D0B1
:1069F4002E4B1B68032B19DC0123324A2949C98811
:106A0400022000F0B3FF00F0EFFF01210D2001F0A0
:106A14005FFFA1E7264BD3F804352B4A00924FF4CD
:106A2400C3722549042007F0C9FDD6E7204BD3F8EB
:106A340004350190254A00924FF4C5721E49042082
:106A440007F0BCFDD8E7184B1B6813F4804F86D0C1
:106A5400164B1B68032B82DD154BD3F804351C4AF7
:106A6400009240F293121449042007F0A7FD76E740
:106A74000D4B1B6813F4804F3FF471AF0B4B1B6835
:106A8400032B7FF76CAF0A4BD3F80435114A0092FD
:106A940040F29B120849042007F090FD5FE700BF15
:106AA4000C2F0020102F0020402E00203C2E002010
:106AB40000100140000D0400430E0400DC2D0020F2
:106AC400340D0400542F0020640D0400940D0400C0
:106AD400AC0D0400C80D040010B582B01446154B6B
:106AE4001B6813F4804F03D0134B1B68032B07DC84
:106AF400012C10D0022C12D0032C14D002B010BDE3
:106B04000E4BD3F804350E4A00926D220D49042031
:106B140007F054FDECE7784602F046F9EAE77846D8
:106B240002F042F9E8E7084A7621042013F042FD16
:106B3400E4E700BF402E00203C2E0020001001405E
:106B4400640E0400430E0400F80D040008B53C2252
:106B54000021064819F06AFE054808F055FA00B904
:106B640008BD044808F0ECFCFAE700BF102F002031
:106B7400E82E0020CC2D002010B582B00446294B0D
:106B84001B6813F4804F03D0274B1B68032B04DCD2
:106B94008CB1032C12D002B010BD244BD3F80435B1
:106BA400421C0192224A00924FF4EE7221490420C1
:106BB40007F004FDECE7FFF7ABFEECE7194B1B68AD
:106BC40013F4804F03D0184B1B68032B1EDCFFF714
:106BD400BDFF0AF0EAFE0422C8214FF4803001F020
:106BE40091FE104B1B6813F4804FD4D00E4B1B68DE
:106BF400032BD0DD0D4BD3F804350F4A00924FF42C
:106C0400F8720C49042007F0D9FCC4E7074BD3F809
:106C140004350A4A00924FF4F5720649042007F03D
:106C2400CDFCD4E7402E00203C2E00200010014073
:106C3400980C0400430E0400C40C0400AC0C0400C3
:106C44003038042800D9704708B5FFF795FF08BD10
:106C5400F8B53C220121104808F00BFBB8B10746F7
:106C64000E4C051D04F1300C26460FCE28606960D9
:106C7400AA60EB60344610356645F5D107CC286030
:106C84006960AA60384608F02DFB0020F8BD04486E
:106C940008F056FCF9E700BFE82E0020102F002072
:106CA400B02D002010B582B02E4B1B6813F4804F1A
:106CB40003D02D4B1B68032B21DC00210E2001F097
:106CC40007FE2A4A5388013353800BF07BFDFFF7FC
:106CD400BFFF18BB254B5B881E2B25D9214B1B6896
:106CE40013F4804F03D0204B1B68032B2EDC0422AB
:106CF400C8214FF4F03001F005FE02B010BD1C4B6A
:106D0400D3F80435194A528801921A4A009240F283
:106D140007121949042007F051FCCEE7174A40F244
:106D24000D1113F047FCD5E7104CA068FFF7AAFD3E
:106D3400134A10600123E188022000F017FE00F0DE
:106D440053FE01210D2001F0C3FDD6E7084BD3F813
:106D540004350C4A009240F21B120749042007F044
:106D64002DFCC4E7402E00203C2E0020102F0020D4
:106D740000100140C00A0400430E0400F80D040092
:106D8400502F0020AC0D040000B583B0144B1B68D9
:106D940013F4804F03D0134B1B68032B0DDC00212D
:106DA4000D2001F095FD01210E2001F091FDFFF76A
:106DB4004FFF70B903B05DF804FB0B4BD3F80435F7
:106DC4000A4A00924FF495720949042007F0F6FB31
:106DD400E5E7084A40F22F1113F0ECFBEAE700BFA5
:106DE400402E00203C2E002000100140AC0B04007B
:106DF400430E0400F80D040008B5FFF729FF00B99D
:106E040008BD024AEE2113F0D5FBF9E7F80D0400A2
:106E140010B582B00446104B1B6813F4804F03D0A6
:106E24000E4B1B68032B04DC23781C2B0FD002B001
:106E340010BD0B4BD3F8043502780192094A009235
:106E44004FF4A9720849042007F0B8FBECE70020CE
:106E540005F044FAEBE700BF402E00203C2E002052
:106E640000100140A40A0400430E040000B58BB0D6
:106E740008A909A80AF0ECFDA8B9194B0593194B08
:106E84000693194B079304230493099BA3F580539A
:106E940002930123039302A9144808F002FB38B9B2
:106EA4000BB05DF804FB124A962113F083FBE4E770
:106EB400104808F045FB104B1B6813F4804FEFD0CB
:106EC4000E4B1B68002BEBDD0D4BD3F804350D4A3C
:106ED4000092A3220C49012007F070FBE0E700BFF9
:106EE400DD6A0200B163020099660200E82E002008
:106EF400F80D0400A02D0020402E00203C2E002080
:106F040000100140FC0A0400430E040010B582B0D6
:106F14003C23019301AB094A0121094808F06AF9AD
:106F2400044620B9B4FA84F0400902B010BD3C22F2
:106F34000021024819F07AFCF4E700BF102F00206A
:106F4400E82E002010B582B0FFF790FFFFF7DEFFB8
:106F5400044658B1144B1B6813F4804F03D0134BF1
:106F64001B68032B13DC204602B010BD104B00221B
:106F74001A805A804FF48072DA80FFF769FE002885
:106F8400F1D00C4A40F2D11113F014FBEBE70A4B99
:106F9400D3F80435094A009240F2D5120849042076
:106FA40007F00CFBDFE700BF402E00203C2E002042
:106FB400102F0020F80D040000100140E80A04001E
:106FC400430E040000B583B06421174801F01AFC95
:106FD400164B1B6813F4804F03D0154B1B68032B0F
:106FE40010DC05F0C9F8C8B900214FF4F03001F005
:106FF4007EFC0222C8214FF4F03001F083FC03B080
:107004005DF804FB0B4BD3F804350B4A00924FF4A4
:1070140018720A49042007F0D1FAE2E7084A40F25C
:10702400662113F0C7FADFE7456C0200402E00200A
:107034003C2E002000100140CC0F0400430E04003D
:10704400F80D040008B5124B998818890CF0FCFC63
:1070540058B90F4B998818890CF0BAFD58B90C4BE4
:10706400188818F04DFB60B908BD0A4A40F2BD11FA
:1070740013F0A0FAEDE7074A4FF4DF7113F09AFA20
:10708400EDE7044A40F2C11113F094FAECE700BFB3
:10709400CC2E0020F80D040030B593B0202200213E
:1070A4000DEB020019F0C2FB01238DF820300723F9
:1070B4008DF8233006238DF82830304B0C93304B59
:1070C40010930DF1470108A80AF086FC58BB2D481F
:1070D40005F0A2F8FFF736FF2B4B187602AC2B4DC8
:1070E4000FCD0FC495E8030084E8030002A800F064
:1070F40021FD9DF8473043BB254B1B6813F4804F9B
:1071040003D0244B1B68032B13DC00F03BFDFFF77B
:1071140099FF0BF057FBFFF76FFE1F491F4801F063
:107124004BFB13B030BD1E4A40F21A2113F042FA51
:10713400CDE71C4BD3F804351B4A00924FF40C7274
:107144001A49042007F03AFADFE7114B1B6813F4DD
:10715400804F03D00F4B1B68032B02DC00F076FC3E
:10716400DBE7104BD3F80435114A009240F2392280
:107174000E49042007F022FAF0E700BF156E020062
:10718400E1660200C02D0020CC2E0020340A040049
:10719400402E00203C2E0020CD670200A96C020086
:1071A400F80D040000100140B00E0400430E04006A
:1071B400E80E040000B583B01B4A04214FF4C0401C
:1071C40007F0E0F9194B1B6813F4804F03D0184BF8
:1071D4001B68032B0FDC19F033F9C0B901F0C8FBAD
:1071E400144801F0E5FBC0B901F0D4FCFFF754FFEB
:1071F40003B05DF804FB104BD3F804350F4A00923A
:1072040040F243220E49042007F0D8F9E3E70D4A7F
:1072140040F2452113F0CEF9E0E70A4A40F2492151
:1072240013F0C8F9E0E700BF5DE50200402E00203E
:107234003C2E00207D6B0200001001407C0E0400F7
:10724400430E0400F80D040008B5FFF7B3FFFFF781
:10725400B9FEFFF7A5F8FCE7184B1B781BB1174BD9
:1072640001221A70704700B587B0154A03AB07CAEC
:1072740003C323F8022B120C1A70124B009303ABB6
:10728400114A1249124813F0FCFC68B9114815F070
:1072940049F901460E4813F01FFD50B9074B01226E
:1072A4001A7007B05DF804FB0B4A782113F082F9D9
:1072B400ECE7094A792113F07DF9EFE794320020D5
:1072C400D80F0400A17302005C2F00209832002024
:1072D400443100207C2F002034130400B0B130B5B9
:1072E40085B00546A1B10C46084619F0F9FA6A467C
:1072F40081B2204606F03EFA04226946284619F077
:1073040031FAB0FA80F0400905B030BD0020704772
:107314000020F9E730B58BB00546002303930493AE
:1073240005930693079308938DF82430154B1A8917
:10733400ADF81C20144A1288ADF8222003AC5B6817
:1073440053F80C0F59689A68DB680FC40F4910484A
:1073540013F0DAFC58B90123009303AB094A927A7B
:1073640029460C4813F0D4FC30B90BB030BD0A4A9E
:107374006E2113F01FF9EEE7074A6F2113F01AF993
:10738400F3E700BF7C320020DA3200205C2F0020BB
:1073940098320020443100203413040070B5C8B082
:1073A400044603780A2B10D8DFE813F00B00990287
:1073B400C4000F000F000F000F0071020F00130232
:1073C40091019C4B1B78012B01D048B070BD9A4BA6
:1073D4001B6813F4804F03D0984B1B68032B50DCBD
:1073E400E269137843B9944B1B6813F4804F03D0BC
:1073F400924B1B68032B46DC637D002BE5D08E4B40
:107404001B6813F4804F03D08C4B1B68032B6FDC79
:1074140000258B4B1B78AB42D7D9AE00894B1B6838
:1074240053F8251004F11600FFF758FF002861D126
:107434000135EEE7E218127983490D681009590005
:107444002E5C07A800F8136002F00F020131AA5C59
:10745400425401330F2BEDD907AA00238DF83C3099
:1074640003F1804303F58833D3F804350292774A55
:107474000192774A00928A227649042007F09EF806
:10748400AEE70023E6E7744BD3F8043592F90D20F8
:107494000192724A00928E226E49042007F08EF8FF
:1074A400AAE7E218927D68490D68100959002E5C1C
:1074B40007A800F8136002F00F020131AA5C4254DD
:1074C4000133032BEDD907AA00238DF8243003F1EF
:1074D400804303F58833D3F804350292604A01925D
:1074E4005B4A009293225B49042007F067F88FE718
:1074F4000023E6E7504B1B6813F4804F03D04F4B37
:107504001B68032B0BDC4F4B1B689A59554B1A60B5
:10751400201DFFF7FFFE474B03221A7055E74E4B21
:10752400D3F80435504A009299224A49042007F0BE
:1075340045F8E8E7404B1B6813F4804F03D03F4BFA
:107544001B68032B35DC3B4B1B78032B42D0022BEF
:107554007FF43BAF454B5B68454A118899801A8894
:1075640001321A80DA88434800880244DA80B1F58F
:10757400807F00F097803D4CE368984723699847E3
:107584002D4B1B6813F4804F04D02C4B1B68032B2A
:1075940000F38C80354B5A689088936801930024DB
:1075A400009423461C32022101F04EF8214B1C703A
:1075B4000BE7294BD3F804352F4A127802921D4A5F
:1075C400127801922D4A0092A6222249042006F044
:1075D400F5FFB8E7284B1B78DBB1174B1B6813F496
:1075E400804F03D0154B1B68032B07DC114B012282
:1075F4001A70214A1378013B1370E6E6164BD3F850
:1076040004351F4A0092AB221249042006F0D6FF2B
:10761400ECE7094B1B6813F4804F03D0074B1B683E
:10762400002B2FDC034B00221A70104B5B69984728
:10763400CBE600BF78320020402E00203C2E0020F4
:10764400DE320020E4320020442E0020F80F040033
:10765400340C04007F1304000010014000100400E7
:107664000C100400E0320020181004007C320020CA
:10767400DA320020DC320020D83200203C10040032
:1076840084100400A14BD3F80435227AA049098858
:10769400029101929F4A0092B2229F49012006F072
:1076A4008DFFBFE79D4A12689A6064E7974BD3F851
:1076B4000435626892889A49098802910192994A2C
:1076C4000092C4229449042006F078FF62E7964BA6
:1076D4001B6813F4804F03D0944B1B68032B4EDCC0
:1076E400934B02221A70904B1B6813F4804F03D003
:1076F4008E4B1B68032B4DDCE3688E49D88A0EF051
:1077040077FB002851D1E0688B4B19688B4BA2683A
:107714004988C08A0FF0DCF800284BD1874B1888C1
:1077240015F024FA00284AD1824B1988834B188813
:1077340015F0CEF9002847D17B4B1B6813F4804F1A
:107744003FF443AE794B1B68032B7FF73EAE6F4B80
:10775400D3F80435E268D28A7749096849887748BA
:107764000088049003917349098802910192744A34
:107774000092E5226849042006F020FF25E6634BC9
:10778400D3F804356F4A0092CF226349042006F0EF
:1077940015FFA5E75D4BD3F804356B4A0092D4225C
:1077A4005D49042006F00AFFA6E7684AD62112F0D4
:1077B40001FFA8E7654ADA2112F0FCFEAEE7634A4E
:1077C400DD2112F0F7FEAFE7604ADF2112F0F2FE8E
:1077D400B2E7027A524B1A8010230022012140683A
:1077E40013F0C5FA00283FF4F0AD4F4B1B6813F4B7
:1077F400804F03D04D4B1B68002B13DC544B1B787C
:107804003BB3494B1B6813F4804F03D0474B1B68B1
:10781400032B13DC464B01221A704D4A1378013BAB
:107824001370D2E5394BD3F804350190494A0092DC
:10783400F5223949012006F0C1FEDFE7334BD3F8C6
:107844000435454A0092F8223349042006F0B6FE76
:10785400E0E7354B1B6813F4804F03D0334B1B68B0
:10786400032B06DC324B00221A70334B5B699847BA
:10787400ABE5264BD3F80435254A12880192374AE2
:107884000092FF222449042006F098FEEAE707AD9F
:10789400334B0FCB85E80F0010222946606813F0A4
:1078A4006FFAB0B9204B1B6813F4804F3FF48DADD1
:1078B4001E4B1B68032B7FF788AD144BD3F804359C
:1078C400284A009240F20D121349042006F076FE75
:1078D4007BE51E4A4FF4867112F06CFEE2E7124B10
:1078E4001B6813F4804F3FF470AD104B1B68032BDF
:1078F4007FF76BAD054BD3F804351B4A00924FF468
:1079040089720549042006F059FE5EE50010014025
:10791400DA320020A81004007F130400E0320020B3
:10792400DC320020EC100400402E00203C2E00200D
:1079340078320020582F00207C3200205A2F00205B
:1079440070110400241104004811040034130400CD
:10795400D8320020B4110400E4110400F41104002E
:10796400E40F04005C1204008412040010B582B019
:107974000AB11446A3B9124B1B6813F4804F1CD0F0
:10798400104B1B68002B18DD0F4BD3F804350F4A3E
:1079940000924FF490720E49012006F00FFE0CE0A5
:1079A4000C4A10700C4A11800C4A012111700C4AC7
:1079B40014600C4A1370FFF74FFC02B010BD00BFF7
:1079C400402E00203C2E002000100140E412040050
:1079D4007F130400D8320020DA32002078320020ED
:1079E400E4320020DE32002000B583B0104B1B6867
:1079F40013F4804F03D00F4B1B68032B06DC0E4897
:107A040013F034FA70B903B05DF804FB0B4BD3F8F0
:107A140004350B4A009240F22F120A49042006F062
:107A2400CDFDECE7084A4FF4987112F0C3FDEAE784
:107A3400402E00203C2E0020A173020000100140C3
:107A4400941304007F1304003413040030B589B088
:107A54000123069306A90DF116000EF02BFF60BB5F
:107A6400069B012B2FD12C4C2568BDF816000EF077
:107A740085FB688023685A884FF6FF739A4226D0A4
:107A8400254B1B6806AA191D58880FF07DF910BBF9
:107A940007A80EF09FF9204B1968BDF81C000EF0E2
:107AA4009DFFF0B91D4B1B6813F4804F03D01C4B92
:107AB4001B68032B1BDC09B030BD1A4A40F23B1192
:107AC40012F078FDCCE7784601F06EF9CBE7784602
:107AD40001F06AF9D4E7134A40F23F1112F06AFD4B
:107AE400D6E7104A40F2431112F064FDDAE70E4B78
:107AF400D3F80435084A1268518890881288039292
:107B040002900191094A00924FF4A372084904209B
:107B140006F054FDCFE700BF7C320020402E002049
:107B24003C2E00203413040000100140A412040071
:107B34007F13040038B50446C36883B1636993B105
:107B44002369A3B10C4D0FCC0FC594E8030085E85D
:107B540003000023094A1370094A137038BD78469C
:107B640001F022F9EAE7784601F01EF9E8E77846E1
:107B740001F01AF9E6E700BF7C32002094320020BD
:107B84007832002010B584B0334BDB69039303A82B
:107B94000EF0E6F8002836D1304C606810210C3025
:107BA40004F040FF606810211C3004F03BFF606863
:107BB40010212C3004F036FF6168226802320C3147
:107BC40000200EF0CFFB20BB254B1B6813F4804F25
:107BD40003D0244B1B68032B21DC204B19685A6803
:107BE4000B1D1C32498800200EF014FF38BB1B4BC0
:107BF40019685A680B462C32498801200EF068FE39
:107C040018BB04B010BD184A40F2591112F0D2FC4E
:107C1400C2E7154A40F2611112F0CCFCD4E7134BD1
:107C2400D3F804350D4A126852880192104A009222
:107C34004FF4B1720F49042006F0C0FCCDE70A4AA4
:107C440040F2631112F0B6FCD1E7074A4FF4B37166
:107C540012F0B0FCD5E700BFD80F04007C3200203E
:107C6400402E00203C2E002034130400001001405C
:107C7400201304007F130400B0F5807F03D0044B6D
:107C8400044A1A607047024B034A1A60704700BFE7
:107C9400E82D0020001704007814040070B506468F
:107CA40014460D4601B122B1044B5E801D705C6028
:107CB40070BD784601F078F8F6E700BFF432002092
:107CC40010B584B0424B5A88824221D148F219033C
:107CD400984240D035D948F22503984265D048F2FD
:107CE4003E03984235D048F21F03984235D0394BB1
:107CF4001B6813F4804F03D0374B1B68002B2EDC1A
:107D0400364A40F20311052012F054FCFF2433E0FC
:107D1400304B1B6813F4804F03D02F4B1B68002B90
:107D240002DC022004B010BD2D4BD3F804350290C0
:107D340001922C4A0092E5222B49012006F03EFCD8
:107D4400EFE7022817D048F203039842CFD10C780A
:107D540012E00C7810E00C780EE00C780CE0204B6C
:107D6400D3F80435214A00924FF481721E49012050
:107D740006F024FCC4E7FF24154B18780028D1D062
:107D8400144B1B6813F4804F03D0134B1B68032B55
:107D94000DDC00230E4A12789A4215D90C4A526817
:107DA400D25CA24212D00133F4E7FF24E4E70C4B87
:107DB400D3F8043501940E4A009240F20B120A499A
:107DC400042006F0FBFBE4E70120ABE70020A9E771
:107DD400F4320020402E00203C2E0020B813040072
:107DE4000010014010140400031404003C140400A7
:107DF4005C14040030B585B0044615460180104675
:107E040004F070F82071E580184B1B88A3810022D0
:107E1400A2731E23E373237C03F0030362F30103C1
:107E2400237401236374A274114B1A88A4F81320D9
:107E34005B88A4F815300F4B1B6813F4804F03D0F4
:107E44000D4B1B68032B01DC05B030BD0B4BD3F885
:107E54000435228802950192094A00924FF49472E3
:107E64000849042006F0AAFBEEE700BFE832002030
:107E7400EC320020402E00203C2E00200010014057
:107E8400841404000314040010B50A4B1B7863B176
:107E9400084C2378013B04F8043B04F087FC0649B2
:107EA4000144204604F058FC10BD784600F07CFFE5
:107EB400EEE700BF0C330020404B4C0008B50348EC
:107EC40004F032FC024B034A1A6008BD1033002050
:107ED400E82D00205516040008B5FFF7EFFF024B0C
:107EE4001B68984708BD00BF0033002010B58CB054
:107EF400904B1B681B78013B0A2B00F26382DFE87E
:107F040013F00B0035005A007F00AA00D800470187
:107F14009A012B024602EF01874B1B6813F4804F32
:107F240003D0864B1B68032B14DC002014F038FEAE
:107F34000446002211460220FFF7B0FE44B114F0BB
:107F440015FF7F4B1B78002B00F04382FFF79CFF4B
:107F54000CB010BD7B4BD3F804357B4A00924FF430
:107F6400B0727A49042006F029FBDEE7724B1B68E5
:107F740013F4804F03D0714B1B68032B0BDC0121DE
:107F8400022014F0B5FE04460022114648F22500F2
:107F9400FFF784FED2E76B4BD3F80435012202923B
:107FA400022201926A4A00924FF4B5726749042092
:107FB40006F004FBE3E7604B1B6813F4804F03D027
:107FC4005E4B1B68032B0FDC624B1A68624B1988EB
:107FD400624B188814F008FE0446614A022148F2F4
:107FE4000300FFF75BFEA9E7564BD3F804355D4A5F
:107FF40000924FF4BA725549042006F0DFFAE3E721
:108004004D4B1B6813F4804F03D04C4B1B68032B60
:1080140015DC4FF6FF73ADF818300223ADF81A30B3
:10802400069A4D4B1988504B188814F095FE044657
:108034004E4A012148F23E00FFF730FE7EE7414BF5
:10804400D3F804354A4A009240F27F123F49042093
:1080540006F0B4FADDE7384B1B6813F4804F03D005
:10806400364B1B68032B15DC424B1A88ADF81820DD
:108074005B88ADF81A30069A374B19883A4B188842
:1080840014F06AFE04463C4A012148F23E00FFF720
:1080940005FE53E72B4BD3F80435364A5288019238
:1080A400364A00924FF4C7722849042006F086FA33
:1080B400DAE7334B1B8823B92B4B1B880133304A37
:1080C40013801D4B1B6813F4804F03D01B4B1B689C
:1080D400032B1CDC2B4B1A88ADF818205B88ADF8F9
:1080E4001A30069A1C4B1988254B188814F034FE54
:1080F4000446254A012148F23E00FFF7CFFD002C3B
:108104007FF41CAF1E4A13880133138016E70D4B0E
:10811400D3F804351B4A52881949098802910192FF
:108124001A4A009240F2A1120849042006F046FAC5
:10813400D0E700BFE82D0020402E00203C2E002078
:108144000C33002000100140E81404000314040060
:108154000415040030330020E8320020FC320020F3
:108164003416040034150400F032002038160400DC
:1081740044150400283300203C1604006415040050
:108184002C330020EC320020401604008415040037
:108194000023CDF81A30CDF81E30CDF82230CDF8BA
:1081A4002630CDF82A30ADF82E308B4A1288ADF83F
:1081B400182001218DF81C10ADF81E10874A128872
:1081C400ADF824201E228DF827209DF8282061F385
:1081D4008702022060F301028DF828208DF829100F
:1081E4004FF0FF328DF82B208DF82C208DF82D00C8
:1081F4008DF82E307A4B1B6813F4804F03D0794BE3
:108204001B68032B0ADC06A814F030FD0446764AEA
:10821400012148F21900FFF741FD8FE6734BD3F8B3
:1082240004350191724A00924FF4E17271490420BD
:1082340006F0C4F9E7E70023CDF81A30CDF81E3074
:10824400CDF82230CDF82630CDF82A30ADF82E30D6
:10825400614B1B88ADF8183001228DF81C2013F0F7
:10826400010F28D14FF48173ADF81E305B4B1B888E
:10827400ADF824301E238DF8273001238DF82930E2
:108284005D4B1A88ADF82B205A88ADF82D20544B3D
:108294001B6813F4804F03D0524B1B68032B0FDC75
:1082A40006A814F0E3FC0446544A012148F21900DC
:1082B400FFF7F4FC42E640F20113ADF81E30D5E7B7
:1082C4004A4BD3F80435BDF81E10029101924C4A72
:1082D40000924FF4F2724749042006F06FF9DFE789
:1082E4003F4B1B6813F4804F03D03E4B1B68032B9A
:1082F40021DC394B18880023079303238DF81830A9
:1083040010F0010F23D04CF20303ADF81A303A4BAE
:108314001A88ADF814205B88ADF81630059B06AAC0
:1083240006CA14F0BDFC0446364A012148F21F0077
:10833400FFF7B4FC02E62D4BD3F80435324A009221
:1083440040F2EF122B49042006F038F9D1E74CF241
:108354000203ADF81A30DAE7002306930793089373
:1083640009930A930B931C4B198801314CF20302B5
:1083740089B206A8FFF73EFD06A814F077FC044670
:10838400224A012148F21900FFF788FCD6E50023B0
:1083940006930793089309930A930B930E4B19883A
:1083A40002314CF2020289B206A8FFF723FD06A8A7
:1083B40014F05CFC0446164A012148F21900FFF748
:1083C4006DFCBBE5134A4FF40871052012F0F2F876
:1083D400B5E5FFF781FDBBE5F0320020E83200206F
:1083E400402E00203C2E00204416040000100140C2
:1083F400B4150400031404002833002048160400B4
:10840400F41504004C1604001C1604005016040055
:1084140054160400B813040008B5FFF767FD08BD3F
:1084240008B5FFF74BFD024B1B68984708BD00BF1A
:108434000433002000B583B01C4B1B681A789AB132
:108444000C2A11D041680088FFF73AFC28BB174A70
:108454001368591C1160164A032111705B780C2BA8
:1084640018D0FFF743FD1AE0124B1B6813F4804F3A
:1084740015D0114B1B68012B11DD104BD3F80435BB
:1084840001920F4A009240F24E220E49022006F059
:1084940095F804E0FFF7C4FF01E0012802D003B01F
:1084A4005DF804FBFFF718FDF9E700BFE82D002095
:1084B4000C330020402E00203C2E002000100140F0
:1084C400B41404000314040000B589B04FF6FF731C
:1084D400ADF81E30ADF81C3001238DF81430ADF822
:1084E40016000DF11E0105A80DF014FEE8B907A948
:1084F400BDF816000EF072FAE8B9BDF81C0014F0CD
:1085040035FBF0B9BDF81E10BDF81C0014F0E0FAFC
:10851400E8B91B4B1B6813F4804F03D0194B1B683D
:10852400032B1ADC09B05DF804FB174A4FF41071F1
:1085340012F040F8DBE7144A40F2412112F03AF815
:10854400DBE7114A4FF4117112F034F8DAE70E4AFE
:1085540040F2452112F02EF8DBE70C4BD3F804353A
:10856400BDF81E200292BDF81C200192084A009218
:1085740040F246220749042006F020F8D2E700BF63
:10858400402E00203C2E0020B813040000100140AF
:108594000C1704000314040030B583B0002837D14D
:1085A400224B1B6813F4804F03D0214B1B68032B11
:1085B40013DC204B1B8843B31C4B1B6813F4804F04
:1085C40003D01B4B1B68032B13DC1A4A1388013B93
:1085D4001380FFF78BFC03B030BD174BD3F8043581
:1085E400164A009240F276221549042005F0E6FF6F
:1085F400DFE7114BD3F80435124A009240F27A2295
:108604000F49042005F0DAFFDFE7FFF765FCE2E736
:108614000C4615460228DED121B129462046FFF733
:1086240009FFD8E7784600F0BFFBF6E7402E0020AC
:108634003C2E00200833002000100140581604008E
:10864400031404008416040010B582B0464C246858
:108654002478002C3DD1454C208045480180454973
:108664004548C8600320087044490A60444A13809E
:10867400BDF81020434B1A804349059818F009F9B6
:1086840028B14249059818F004F9002836D1404B26
:1086940041F201025A803F4B4FF480525A804FF608
:1086A400FF733B4A13803B4A13803B4B1B6813F414
:1086B400804F03D0394B1B68032B46DC2B4C20889E
:1086C400FFF702FF2088FFF7D7FAFFF70FFC02B08D
:1086D40010BD314B1B6813F4804FF8D02F4B1B682F
:1086E400002BF4DD2E4BD3F804352E4A009240F2D1
:1086F40092222D49012005F061FFE8E72B490598F6
:1087040018F0C7F840B9224B41F203025A80214BBA
:1087140041F202025A80C2E71F4B1B6813F4804FD8
:1087240003D01E4B1B68002B03DC784600F03CFB97
:10873400B5E71B4BD3F804351D4A009240F2AA2238
:108744001949012005F03AFFEFE7154BD3F804353A
:10875400064A12880192174A009240F2B122124945
:10876400042005F02BFFA9E7E82D0020F0320020BB
:10877400083300200C3300201D8402003033002015
:10878400E8320020FC320020580F0400740F04006B
:10879400EC32002028330020402E00203C2E002004
:1087A400001001409016040003140400900F04000C
:1087B400C4160400E416040038B50C46054628B176
:1087C40044B1064B1D60064B1C6038BD784600F072
:1087D400EBFAF5E7784600F0E7FAF2E70433002015
:1087E4000033002008B5064B1B683BB110F080FA3B
:1087F400002803DB024B1B689847F7E708BD00BF5E
:108804003433002010B50C46144B1860144A01216F
:10881400144817F04DFE78B9610CE00341F26F7211
:1088240000238B4208BF82420BD24FF47A7200239A
:1088340017F08EFE014605E00B4A4A2111F0BAFEFC
:10884400EAE705210022094817F048FE00B910BDE7
:10885400054A4B2111F0AEFEF9E700BF3433002086
:10886400E987020044170400481704003833002045
:1088740008B5134B1B6873B14FF0A042D2F804350E
:10888400104909684B40C2F804350D4A1368013B8E
:10889400136023B108BD002011F07EFEECE70A4806
:1088A40017F03AFE4FF0A042D2F8043505490968A2
:1088B40023EA0103054909680B43C2F80435E9E7D3
:1088C400583300205C3300206033002088330020BC
:1088D40031B1012383404FF0A042C2F80C357047F8
:1088E400012383404FF0A042C2F80835704721B1FC
:1088F4004FF0A043C3F80C0570474FF0A043C3F8F2
:10890400080570475AB338B51346132900D838BD43
:10891400134A10605B00013B124A13604FF0A043FE
:10892400D3F804351840104B186000254C0CC803CC
:108934004FF47A72002310F5FA7044EB050117F036
:1089440007FE2A460146094817F0C8FD0028DED173
:10895400034B1A684FF0A043C3F80C25D7E77047C0
:108964005C3300205833002088330020603300201B
:1089740008B50D230BE04FF0A04103F5E07203208E
:1089840041F8220001229A40C1F808250133102B36
:10899400F1D9054A0121054817F08AFD00B908BD3F
:1089A40011F0FAFDFBE700BF7588020028180400E7
:1089B40000B583B018B1264A106000231FE0254B90
:1089C4001B6813F4804F03D0234B1B68032B01DC7B
:1089D4000E202EE0214BD3F80435214A0092E622E2
:1089E4002049042005F0EAFDF2E71F4AD25C02F5B3
:1089F400E0724FF0A0411D4841F822000133032BDF
:108A0400F3D91B4B4FF00042C3F804230022C3F8F0
:108A14007C21184BC02283F8062340221A600D4B98
:108A2400186810F4804004D00B4B1B68032B03DC44
:108A3400002003B05DF804FB084BD3F804350E4A5C
:108A44000092F6220749042005F0B8FD0020F0E763
:108A540080330020402E00203C2E002000100140D6
:108A640008180400F91704002C1804000C00030073
:108A74000060004000E100E01818040010B582B066
:108A8400354B1B6813F4804F03D0344B1B68032B06
:108A940004DC0024324BC3F87C4124E0314BD3F88E
:108AA4000435314A009240F203123049042005F0A3
:108AB40085FDEEE7D11A29E02A4BD3F804352C4A78
:108AC40000924FF487722949042005F077FD2AE0CB
:108AD400214B1B6813F4804F03D0204B1B68032BDE
:108AE4002BDC0134E4B2032C33D84FF0A043D3F889
:108AF4001025204B195D01238B409343E8D01E4B76
:108B04001B68184AD2F80425991AD3D443F2333394
:108B14009942DDD9104B1B6813F4804F03D00F4BDF
:108B24001B68032BC8DC0F4BD3F80425124B1A60C7
:108B3400124B1B6820469847D3E70A4BD3F80435F9
:108B44000F4A009240F213120849042005F036FD42
:108B5400C7E702B010BD00BF402E00203C2E00200D
:108B6400006000400010014090170400F917040051
:108B7400A41704002C180400843300208033002040
:108B8400B017040060DF704769DF704708B503F071
:108B940047FB08BD10B588B011F062FB00282BD14B
:108BA400224B0793079A0692002303930493059399
:108BB40003A90120FFF7E8FF08BB002304930593F2
:108BC400F8230393069A03A9A120FFF7DDFFC8B990
:108BD40006A8FFF7D7FF0446069A079B9A4208D0D7
:108BE400134B1B6813F4804F03D0124B1B68012BEB
:108BF4000BDCB4B908B010BD11F0CEFCD0E711F015
:108C0400CBFCDAE711F0C8FCE2E70B4BD3F80435F0
:108C140001920A4A0092A2220949022005F0CEFCE0
:108C2400E7E7204611F0B8FCE4E700BFA02D0020E0
:108C3400402E00203C2E0020001001408418040027
:108C4400691804000620704700B587B041F201039B
:108C540098424CD020D944F2010398425DD044F2AA
:108C64000203984274D1464B1B6813F4804F1ED004
:108C7400444B1B68002B1ADD434BD3F80435108892
:108C84000390526802920191404A00926C2240493A
:108C9400012005F093FC0AE0012859D1384B1B68E8
:108CA40013F4804F03D0374B1B68002B12DC4FF0BA
:108CB400A0434FF4F032C3F81825C3F80C25EFF3A2
:108CC400108372B64DF6AD6C324B1B78002B54D02A
:108CD40030BFF9E72C4BD3F80435029201912E4AA8
:108CE400009260222A49012005F068FCDFE7244B4A
:108CF4001B6813F4804FDAD0224B1B68002BD6DD9F
:108D0400214BD3F8043502920191244A0092632244
:108D14001F49012005F052FCC9E7194B1B6813F4E5
:108D2400804FC4D0174B1B68002BC0DD164BD3F803
:108D3400043510680490506803900291926801927F
:108D4400174A009277221249012005F037FCAEE75A
:108D54000B4B1B6813F4804FA9D00A4B1B68002BE4
:108D6400A5DD094BD3F8043501910E4A00927B220C
:108D74000749012005F022FC99E707B05DF804FBE0
:108D8400402E00203C2E0020001001404C1904000D
:108D9400F9180400EC2D00200C1904002819040013
:108DA4006C1904009019040000B583B00023ADF8D9
:108DB4000030054B01936A46014644F20200FFF776
:108DC40043FF03B05DF804FB780B040010B40346C2
:108DD400044C006859689A68DB680FC45DF8044B5A
:108DE400704700BF8C3300200B4B0C4A92E8030001
:108DF40083E8030003F10802094903C982E8030078
:108E0400DA79042161F30712DA711A7A022161F323
:108E140087121A72704700BF8C3300206000001064
:108E2400A4000010004870478C33002000231F2B3F
:108E340009D8074901EBC30000224280426001F8CF
:108E440033200133F3E7034B00221A60704700BF5D
:108E54009C3300209C34002030B405460F4B1B6823
:108E640000240AE01F230E4A12F83300A0B102EBDB
:108E7400C3025288AA4207D001341F2C0BD85A1EB1
:108E8400002BEFD01346EEE7054A02EBC30252680B
:108E94008A42F1D100E0002030BC70479C340020AD
:108EA4009C33002030B40A4A13680A4C04EBC3050F
:108EB40068806960012104F833100B441360202B8F
:108EC40001D030BC7047134600221A60F9E700BF96
:108ED4009C3400209C330020C0F30C038B4204D24A
:108EE400C91A0144A1F500507047C91A08447047D3
:108EF400C37D002B42D0C3780A7802F0800203F0CD
:108F04007F0313430B7002780B7803F07F0343EA6B
:108F1400C2130B700378002B41D030B48378082B34
:108F240014BF002201224B7803F07F0343EAC213EB
:108F34004B70C58803F08003C5F3861423434B703C
:108F44008A7802F0030242EA8502D2B28A70057A74
:108F540002F0FC02C5F3C10422438A70CB7803F00B
:108F64001F0343EA4513DBB2CB70427A03F0E003FC
:108F740002F01F021343CB7030BC7047C3780A78E9
:108F840002F0BF029B0103F0400313430B7002790C
:108F940003F0C00302F03F0213430B70B3E77047C2
:108FA4000023032B2DD810B402E00133032B24D863
:108FB400C3EBC3021401144A224492F84820012A44
:108FC400F3D1114A2244948AC2899442EDD1C3EB6D
:108FD400C30214010C4A2244D2888A42E5D10A4AC7
:108FE4002244B2F8582012B1848AA242DDD1C3EBE4
:108FF400C3031A010448104400E000205DF8044B48
:1090040070470020704700BF4C350020002300E06B
:109014000133032B14D8C3EBC3021101094A0A44D8
:1090240092F84820022AF3D1064A0A44918A828A95
:109034009142EDD1C3EBC3031A01024810447047B7
:10904400002070474C35002008B9042070470820E0
:10905400704730B403460C460978C1700021416260
:10906400A1680B2903D8217B01B3012100E0012170
:1090740019700020987029B1A1680731C908013915
:10908400597218720121D97503F10C0504F110010C
:1090940003C985E80300E1899982A1691962217FE6
:1090A4009975216AD9629A6230BC70470021DFE762
:1090B4000021174B1B688B4227D90023154A02EB6A
:1090C400C10252689A421ED910B40FE060685DF87C
:1090D400044B704701310E4B1B688B4211D900239E
:1090E4000C4A02EBC10252689A42F3D9094A52F877
:1090F400312002EBC30412F833208242E6D001335C
:10910400EEE70020E3E70131D3E70020704700BF1A
:10911400A0340020A434002070B58CB006460D465F
:1091240014462C22002101A817F080FB0F238DF890
:109134000430ADF808604FF0000365F300038DF8C8
:109144000A308DF80B4001A801F016FA0CB070BD7E
:1091540030B58DB005460C462C22002101A817F02D
:1091640065FB10238DF8043002958DF80C4001A89E
:1091740001F002FA0DB030BD00B58DB010B913F195
:10918400020F06D1074B186804F014F90DB05DF80E
:1091940004FB01228DF80420029301A801F0ECF9EC
:1091A400F0E700BFAC340020D0B50446037853B1D7
:1091B400E3691F0A1E06E188A069FFF78DFE3018D7
:1091C40047F10001D0BD7846FFF7EEFDF0E700005F
:1091D400F8B50546002400E00134032C20D8C4EB84
:1091E400C4031A010F4B134493F84830022BF3D1F4
:1091F4000C4B13449A8AAB8A9A42EDD12846FFF766
:10920400D3FF06460F46C4EBC402130105481844B5
:10921400FFF7CAFF8F4208BF8642DDD2012000E07B
:109224000020F8BD4C350020F8B5064603783BB164
:109234003046FFF7B9FF04460D46B08A002304E028
:109244007846FFF7B1FDF3E70133072B0ED81A0177
:1092540007498A5A8242F7D101EB0312D2E9026725
:10926400AF4208BFA642EFD1104600E00020F8BD8F
:10927400B034002038B504460D46037853B10023BA
:10928400072B0ED8A18A1A011248825A914205D09E
:109294000133F5E77846FFF787FDF0E71B0100216E
:1092A400C1520D4A1368591C116003F00703A08AC8
:1092B4001A010849885255B16278064D05EB031529
:1092C400AA702046FFF770FFC5E9020138BD0022ED
:1092D400F3E700BFB034002030350020F8B5069C19
:1092E400002962D00F4616685568D2F808E0D2F813
:1092F4000CC0E6602561C4F814E0C4F818C016690F
:109304005569E6612562002262700278D2092270F2
:1093140062B30421B9424AD8E57D4DB3017801F026
:109324007F01E1700021A1709AB14278920102F4A8
:10933400FE52817842EA9102E2808278D20002F001
:109344001802C17842EA51122272C27802F01F0256
:1093540062721D46002363622B78032B21D82A787E
:10936400144B53F82230E3620020F8BD0121D1E709
:109374000578C5F38015E570057805F03F0525717E
:1093840042B190F90110002902DB0421A170CBE75E
:109394000821FBE70425A5702944B942C4D9092052
:1093A400E3E77846FFF700FDD9E70920DDE7092068
:1093B400DBE700BFAC19040070B50C461E46037809
:1093C400ABB104252A44A26000F10C032360836A34
:1093D4006360C36AE36000232374204604F05EFBE9
:1093E400034610B9626915443560184670BD0125FD
:1093F400E8E72DE9F0418EB00D4616461C4680463E
:1094040000282DD0002D2FD0002C31D0636A0233D8
:10941400059304F10C00E378002B2DD00121A278F0
:1094240001AF3B46082A14BF0022012204F007F9C9
:109434000697CDF81C80B2B2ADF820200B951544E8
:109444000C95A3788DF83430237B022B16D000239F
:10945400ADF8283005A804F0EAF80EB0BDE8F081B4
:109464007846FFF7A1FCCDE77846FFF79DFCCBE7F4
:109474007846FFF799FCC9E70221D0E723692BB1AD
:10948400236909931023ADF82830E3E77846FFF702
:109494008BFCF5E72DE9F04188B004460D46C37D09
:1094A400002B3CD0082605FB06F8637AAB4238D083
:1094B400257201AB324602A92046FFF77DFF07461D
:1094C40048BB4DB994F8533033B9A369C3F30C03C3
:1094D400E380012384F85330E37D7BB994F8523060
:1094E40063B91DBBB4F84A10A27823468A1AE16E08
:1094F4000846FFF77EFF012384F85230079920467F
:10950400FFF7F6FCE16E32464144019817F065F925
:1095140002A804F0E9FA384608B0BDE8F0810C2648
:10952400C1E7B4F84A60A6EB0806C1E77846FFF73E
:109534003BFCD7E770B505460E4609B100230B6026
:1095440095F85040002104E0631C85F85030013444
:10955400E4B26B7AA34210D3EA6C0123A3401A420B
:10956400F5D121462846FFF795FF014628B9002E7C
:10957400EAD0336801333360E6E7084670BDF0B5DE
:1095840089B085781544C37D7BB10B239D4224D8D3
:1095940016460F46044601AB2A4602A9FFF70CFF04
:1095A400054620B1284609B0F0BD0F23EEE7079920
:1095B4002046FFF79DFCE37D43B1324639460198CE
:1095C40017F00BF902A804F08FFAEBE723463246B2
:1095D40001993846FFF70DFFF4E70925E2E700009B
:1095E40010B5044690F84830012B0CD103F0DEF896
:1095F400237B012B0BD0094BD968014404F13000C3
:1096040003F0AAF810BD7846FFF7CEFBEEE7A37D82
:10961400024AD168126902FB0311EEE734350020D7
:1096240030B583B0002403E02846FFF7D9FF0134A6
:10963400032C19D8C4EBC4031A010C4B134493F83C
:109644004830012BF3D100230193C4EBC40213016E
:10965400064D1D4401A92846FFF76CFF0428E3D0FA
:10966400019B002BE3D0DFE703B030BD4C35002075
:1096740038B5044690F84830022B09D1064B1D68D2
:1096840003F094F8411904F1300003F065F838BD93
:109694007846FFF789FBF1E73435002038B50446F6
:1096A40090F84830022B10D10A4B5D7D5A689B68B4
:1096B40003FB052503F07AF8411904F1500003F087
:1096C4004BF8012384F8683038BD7846FFF76CFB0B
:1096D400EAE700BF3435002010B50446808A02F062
:1096E40001FC01281CD1237BE3B194F91620002A44
:1096F4001ADBE27D4AB1022B18D094F90330002B17
:1097040016DBA378B3B900200BE0E2780AB9012B89
:1097140012D1237893B9A378042B11D1002000E04F
:10972400102010BD1020FCE70720FAE71020F8E70E
:109734000720F6E70720F4E70720F2E70020F0E728
:109744000720EEE738B50446C2698169808A06F0CD
:1097540017F9054608B9284638BDE169002201F029
:109764000101A08AFFF7D8FCF5E700002DE9F047D6
:1097740080460E4617464B1EDBB2012B0FD8B7F5B9
:10978400C07F10D80024032C1AD8C4EBC4031A01D8
:10979400304B134493F848304BB10134F3E7784627
:1097A400FFF702FBEBE77846FFF7FEFAEAE7DFF89C
:1097B400A4A015465544384608F0EFF8E86600E0E2
:1097C40000255DB3EB6E002B42D043462A4608F1D8
:1097D400300ED3F800C05C689868D968C2F800C03D
:1097E40054609060D160103310327345F1D100237E
:1097F400EB64A5F84A70012E13D06FF00103AB623D
:10980400002385F86830144BAB652D66134BAB63AE
:109814002D64012002F062F885F848602846BDE80E
:10982400F0870F4B1B7D85F85130002385F85230AB
:1098340085F8533085F85030D8F828206A65A5F8A3
:1098440058306FF00103AB62064BAB632D64E0E765
:109854001D46E3E74C350020ABA10200919B0200BA
:1098640034350020DD9B020000B585B000238DF85F
:109874000F3098B10346084602330B600DF10F0117
:1098840003F0D9FE9DF80F3043B10D4B1B6813F064
:10989400040F03D00B4B1B68032B04DC9DF80F0053
:1098A40005B05DF804FB084BD3F80435074A009271
:1098B40040F237420649042004F080FEEEE700BF80
:1098C400402E00203C2E002000100140B81A040055
:1098D400AB1A04002DE9F0438FB004460E4615463A
:1098E4001F46D0F81890037823B1C1884846FFF783
:1098F400F3FAA06104F10C00E378002B37D00121C6
:10990400A2780DF128084346082A14BF0022012238
:1099140003F095FEC4F81890CDF808800396A37858
:10992400EA1A92B2ADF810203244089207978DF8E3
:1099340024300023ADF81830E37863B3237B022B83
:1099440017D02546002345F8243F2A462179206A6A
:109954000DF0D0FA606A90B101A9FFF785FF0028E5
:109964003ED12A462179206A0DF0C4FAF2E7022199
:10997400C6E71023ADF8183023690593E1E7237B8C
:10998400022B31D104F10C01E0890DF065FB0028B4
:10999400D4D1052025E0237B012B01D0052020E034
:1099A400E389ADF80030A38AADF80230002500E069
:1099B4000135012D12D82146002341F8243F0EAB76
:1099C40003EB450333F8380C0DF0B1FA01A9606AD2
:1099D400FFF74AFF0028EBD0002002E0052000E05A
:1099E40000200FB0BDE8F0830520FAE770B5F0B0B1
:1099F4000D4614461E4610AB0A4601462046FFF7A4
:109A040069FF50B1224B1B6813F0040F03D0214BA4
:109A14001B68052B2FDC70B070BD2046FFF792FE4B
:109A24000028F8D103AB01228DF80C20A28AADF8EE
:109A34000E20002204928DF8142010AA0692A27817
:109A4400AD1AADF81C5008AA93E8030082E803009D
:109A54000AAB04F10C0292E8030083E80300A37D3F
:109A64008DF83830236A0C93636A0D930F9605A81A
:109A740000F082FDCFE7084BD3F80435074A009283
:109A840040F20E720649062004F098FDC3E700BFB9
:109A9400402E00203C2E002000100140DC1A04005F
:109AA400AB1A040010B50446C06E07F07AFF04F147
:109AB400300002F039FE94F84830022B0AD07022AC
:109AC4000021204616F0B2FE002084F8480001F080
:109AD40005FF10BD04F1500002F026FEEFE710B5BB
:109AE4008CB0044690F84830012B0CD101238DF83A
:109AF4000430636D029301A800F03EFD2046FFF799
:109B0400D1FF0CB010BD7846FFF74EF9EEE7000028
:109B140030B585B00D460446A8B194F84830022B00
:109B240015D02946606DFFF713FB2046FFF7BAFFF7
:109B3400114B1B6813F0040F03D0104B1B68032B4D
:109B44000ADC05B030BD7846FFF72EF9E5E70021C1
:109B54002046FFF78FFBE4E7094BD3F8043594F86C
:109B6400482002950192074A009240F22E220649AB
:109B7400042004F023FDE4E7402E00203C2E0020C6
:109B840000100140BC190400AB1A040008B50846D3
:109B94000021FFF7BDFF08BD08B5037B012B02D0F0
:109BA400FFF79DFF08BD0121FFF7B2FFFAE70000B0
:109BB40008B590F8513053B1013B80F8513000237F
:109BC40080F85030034B186803F0F4FB08BDFFF72E
:109BD400E3FFFBE7AC34002010B50C4691F84830A5
:109BE400012B03D12046FFF7E3FF10BD7846FFF7B2
:109BF400DBF8F7E7062976D1F0B585B0154602788B
:109C0400910101F4FE5147788478C3781B0443EA38
:109C14000463047943EA042344791C4356B241EAB9
:109C240097012846FFF7BCF90746E0B1002E2FDB69
:109C3400C289A98A8A422BD02B4B1B6813F0040FCC
:109C44003ED02A4B1B68012B3ADD294BD3F804354F
:109C540002910192274A009240F28C622649022026
:109C640004F0ACFC2CE0204B1B6813F0040F27D04D
:109C74001E4B1B68012B23DD1D4BD3F804351F4AF3
:109C8400009240F284621C49022004F097FC17E021
:109C9400002E17DBFD6C2543FD64BCB13B78D3B1CA
:109CA4007B7A5A1C01239340013B9D4217D000212B
:109CB40087F850103846FFF73DFC3846FFF790FC14
:109CC40005B0F0BDAB8AA7F85830E3E70321384666
:109CD400FFF71EFFF4E77846FFF766F8E0E738463B
:109CE400FFF7FDFEECE77047402E00203C2E0020DD
:109CF40000100140241A0400AB1A0400F4190400F3
:109D04002DE9F0438BB007460E4614461D46104617
:109D1400FFF718FD50B994F80380B8F1000F08D18B
:109D24002B46224631463846FFF764FF0BB0BDE8A8
:109D3400F0834046FFF7BCF981460028F6D08DF841
:109D44000480236A0793A38AADF8123005AB04F1AB
:109D54000C0292E8030083E80300A37D8DF8203011
:109D64000297039623788DF81030E36A0993294605
:109D740001A8C847DAE710B5547814F0010F03D0EE
:109D8400D47D14B1FFF7BCFF10BDFFF72FFEFBE736
:109D940008B501390130FFF7EEFF08BDF0B5C7B0D3
:109DA40086781644C37D2BB14FF48073B3427ED3BF
:109DB400002303E04FF4C073F8E70133032B19D8F1
:109DC400C3EBC30425013C4C2C4494F84840012CBB
:109DD400F3D1394C2C44A58A848AA542EDD1C3EB36
:109DE400C3042501344C2C44E589C489A542E4D13B
:109DF400082455E014460F4632460121FFF7B6FC0D
:109E04000546002855D022463946C06E16F0E5FCBA
:109E14000023459345A92846FFF78CFB044608B167
:109E2400042840D1459B7BB9244B1B6813F0040FD5
:109E340035D0234B1B68032B31DDB5F84A70802FD6
:109E440028BF8027002313E02846FFF7C9FBEBE770
:109E5400EA6ED25C1B490C6810095900265C04A800
:109E640000F8136002F00F020131A25C4254013386
:109E7400BB42EDD304AA002302F8173003F1804358
:109E840003F58833D3F8043502920F4A01920F4A3E
:109E9400009240F271520E49042004F08FFB00241A
:109EA400204647B0F0BD2846FFF7FCFDF8E709243B
:109EB400F6E70424F4E700BF4C350020402E0020D0
:109EC4003C2E0020442E0020681A0400340C0400A8
:109ED400AB1A040070B504460D461646FFF7FCFBAA
:109EE400034638B923783BB1324629462046FFF76A
:109EF40055FF0346184670BD324629462046FFF7F3
:109F04003EFB0346F6E7000038B504460D46CB6930
:109F14005B780371CB691B7883F00103C370CB6951
:109F240043628B8A0B2B07D8CB7A002B35D10B7B62
:109F3400012B02D0002300E001232370002B31D039
:109F4400287B02282BD0FFF77FF8A070AB8A03444C
:109F54000B33174880FB03235B10013B6372002320
:109F640023720023E37504F10C0395E8030083E8EE
:109F74000300AB6923622B89A382AB7AA3752B6A96
:109F8400A362DF23E36228460DF094F820B12B7816
:109F9400012B0AD0FF23E36238BD0123CDE7054B33
:109FA400987DD0E70423A370DBE72023F3E700BF09
:109FB400ABAAAA2A3435002010B54FF4E072002170
:109FC400134816F033FC05F08DFD0024114B1C6082
:109FD40080222146104816F029FC104B104A1A60C2
:109FE400104A5A604CF250329A600F49D9601A6193
:109FF40004221A759C7508225A750C4803F0BAF9A4
:10A004000B4B18600B4B1C600B4805F06DFE10BD2C
:10A014004C35002030350020B03400203435002089
:10A0240080969800F049020020A107009DA102003B
:10A03400AC340020A03400207D91020008B505F066
:10A0440097FC08BD98B110B58CB00446036983B180
:10A05400C36983B1836983B101466846FFF754FF3E
:10A06400A28A21696846FFF735FF0CB010BD0E20A7
:10A0740070470E20F9E70E20F7E70E20F5E790B1C0
:10A0840010B58CB0044642687AB182697AB10A4646
:10A0940001466846FEF7DDFFA26861686846FFF77F
:10A0A40019FF0CB010BD0E2070470E20F9E70E20EA
:10A0B400F7E70000037B012B01D00020704710B5A7
:10A0C4008CB000230193CDF80730C288C2F3861404
:10A0D40092008DF801200A0E8DF802200A0C8DF8EA
:10A0E40003200A0A8DF804208DF805104278022A0C
:10A0F40014BF0022012244EAC2148DF80040062253
:10A10400059201228DF81C20828AADF81E20089346
:10A114008DF80C30CDF810D0026A09928DF8183001
:10A12400C389ADF81A30C36A0B93837D43B98DF8A4
:10A1340028306FF0010103A8FFF7A1FF0CB010BD98
:10A14400024B5B7D8DF82830F3E700BF34350020E7
:10A1540090F84830022B00D0704790F86830022BFA
:10A16400FAD110B50446C16CFFF7A4FF10B900235F
:10A1740084F8683010BD000010B5002407E0C4EB7B
:10A18400C402130103481844FFF7E2FF0134032C0F
:10A19400F5D910BD4C35002008B5FFF741FAFFF79B
:10A1A400EBFF012008BD10B50C4691F84830022B96
:10A1B40006D1022384F868302046FFF7C9FF10BD9A
:10A1C4007846FEF7F1FDF4E72DE9F0438FB006463B
:10A1D400FEF7FEFF002840F08E803046FFF724F89B
:10A1E400074600283CD13046FEF710FF044658B11C
:10A1F4003046FEF7D9FF804689462046FEF7D4FF55
:10A20400494508BF404553D3002C75D1757A6B1C62
:10A21400F27D002A52D0082505FB03F5002A4FD011
:10A224004FF48073AB424ED3F188B069FEF754FE0D
:10A23400F2690146B08A05F0FFFB00285CD12A468A
:10A2440002213046FFF792FA0446002854D1002137
:10A254003046FFF72FFF02210020FEF779FF4BE085
:10A2640002AC35460FCD0FC40FCD0FC495E80F00D7
:10A2740084E80F00BB788DF809307BB19DF8083075
:10A2840073B19DF811104B1C01219940013902A8AA
:10A29400FFF710FFBB7813F0010F05D100242BE06A
:10A2A4007846FEF781FDECE73046FFF74BFAF5E719
:10A2B40005212046FFF72CFC3C46A7E70C25ABE71D
:10A2C4004FF4C073AEE70E4B1B6813F0040F03D0BA
:10A2D4000C4B1B68002B01DC3C460DE00A4BD3F809
:10A2E40004350195094A009240F29232084901204E
:10A2F40004F064F9F0E7002420460FB0BDE8F083D1
:10A30400402E00203C2E002000100140E0190400E3
:10A31400AB1A04002DE9F04182B006468846154682
:10A324001F461046FFF750FF002847D00446434B12
:10A334001B6813F0040F03D0414B1B68032B40DC54
:10A344002046FFF795F9237B012B48D0E16C2A7A4C
:10A3540001239340194231D10B43E364A8F104086B
:10A364002B7AEA7D002A42D04FF0080C0CFB03FC48
:10A37400617A8B423ED0002A41D00823434540D124
:10A38400A269AB699A4209D204F10C0E0C350FCDC7
:10A39400AEE80F0095E803008EE80300E06E424645
:10A3A400311D604416F019FAE56C237873B3637AAF
:10A3B4005A1C01239340013B9D422BD002B0BDE8BF
:10A3C400F081204BD3F804352A7A01921E4A009278
:10A3D4004FF471721D49042004F0F0F8B0E794F8CA
:10A3E4006830002BB2D12046FFF758F9AEE74FF0A2
:10A3F4000C0CBBE70CEB0803A4F84A30C0E70C23B1
:10A40400BCE704212046FFF783FBD7E77846FEF735
:10A41400CBFCCCE7E16C2046FFF74CFE3B462246E2
:10A42400B4F84A10E06EFFF7A6FC01212046FEF7BF
:10A4340021FF2046FFF736FBC0E700BF402E002077
:10A444003C2E002000100140CC1A0400AB1A04007A
:10A454002DE9F04190B0002842D08046002A41D036
:10A464001F4614460E4604AB00933B46FEF736FFE8
:10A47400054618B1284610B0BDE8F08104A8FFF7DE
:10A484002BF905460028F5D12269E168208905F0F9
:10A49400D3FA0028EED100230293039302A9608823
:10A4A4000CF0DAFD38B19DF8113043F001038DF85A
:10A4B4001130039B08939DF81130002BDAD09DF8DE
:10A4C400103033B13B4604AA31464046FFF722FF21
:10A4D400D0E73B4604AA31464046FFF759FCC9E79A
:10A4E4000E25C7E70E25C5E7F8B500B30546164B9C
:10A4F4001F68F7B90E463C46B4420ED205EBC403BE
:10A504005B68CBB115F8340010F0800F16D1B8B1E8
:10A51400FEF7CEFDB0B90134EEE70C4B43F83750EB
:10A5240003EBC7035E607B1C074A136002E00E273F
:10A5340000E004273846F8BD0E27FBE70B27F9E7B0
:10A544000F27F7E70F27F5E7A0340020A4340020F5
:10A55400084B196861B110B504E0064803F099FF8F
:10A56400214624B10C680B79002BF9D0F5E710BD16
:10A57400704700BF1037002038B5054630B1104B86
:10A584001C68ACB10F4B01221A7004E07846FEF748
:10A594000BFCF4E724683CB12379002BFAD154F87E
:10A5A400043C28469847F5E7064B1B78022B00D05D
:10A5B40038BDFFF7CDFF034B00221A70F8E700BF48
:10A5C400103700200C37002010B5044630B10023AA
:10A5D4002372211D034803F031FF10BD7846FEF7B6
:10A5E400E3FBF4E7103700200A8883689B5A07339B
:10A5F4009BB223F0030313449BB20288043A9342B0
:10A6040000D900230B80704710B582B004468368DC
:10A61400C91AADF806100DF10601FFF7E5FFBDF804
:10A624000630A068184402B010BD0088043880B217
:10A63400704743888268D018D152012383707047D1
:10A64400826800239370438083807047073189B206
:10A6540021F0030189B2428883889A4204D29B1A6A
:10A6640099421EDC0020704710B59A420FD9048825
:10A67400A41AA14217D98B4217D3032C03D9836898
:10A68400134404229A7000234380184604E082682D
:10A6940013449B780BB1042010BDFFF7D1FF0020B9
:10A6A400FAE7042070470020F6E70420F4E738B501
:10A6B40004460D468368828813448B4202D0784650
:10A6C400FEF772FB0023AB70211D2046FFF78CFFC1
:10A6D400A288A36813449B78042B00D038BD0023C0
:10A6E400A380FBE710B50C468368428813448B4271
:10A6F40002D07846FEF758FB0023A37010BD70B556
:10A70400064615460C46002944D0002E46D0B4F126
:10A71400005F08D94FF08053D3F80C3103F50023C0
:10A72400B4EB832F0ED3B4F5000F08D94FF0805348
:10A73400D3F80C3103F50053B4EB832F02D37846DE
:10A74400FEF732FB6B1E2344B3F1005F08D94FF0D0
:10A754008052D2F80C2102F50022B3EB822F0ED3E3
:10A76400B3F5000F08D94FF08052D2F80C2102F54E
:10A774000052B3EB822F02D37846FEF715FB042D6B
:10A7840010D9358000237380B380B460043D2580E4
:10A79400A37070BD7846FEF707FBB6E77846FEF770
:10A7A40003FBB4E77846FEF7FFFAEAE738B5044658
:10A7B400A0B16288A36813449B78012B12D0EFF3F5
:10A7C400108572B6A388A16819448B78032B0DD029
:10A7D4002046FFF735FF05B962B638BD7846FEF767
:10A7E400E3FAE6E77846FEF7DFFAE8E72046FFF704
:10A7F4000BFFA368C31A638000238370EBE72DE982
:10A80400F0410E4615460446D0B1EEB16288A36805
:10A8140013449B78012B1BD025B32046FFF705FF7B
:10A82400A84221D3EFF3108872B629462046FFF7D9
:10A834000DFF074680B1B8F1000F16D162B614E0DF
:10A844007846FEF7B1FAE0E77846FEF7ADFADDE7C1
:10A854007846FEF7A9FADFE729462046FFF7E9FE26
:10A864003060E8E7092700E009273846BDE8F081B1
:10A87400F8B50C4616460546E0B1FCB1A378012BA9
:10A8840020D12388B34221D326B3EFF3108772B6C5
:10A8940026800223A370E9182846FFF7A5FE6B88DB
:10A8A400AA88934203D0AA68134400229A7007B975
:10A8B40062B6F8BD7846FEF777FADEE77846FEF72B
:10A8C40073FADBE77846FEF76FFADAE77846FEF7C5
:10A8D4006BFAD9E77846FEF767FAD6E770B50D4606
:10A8E400044690B1ADB1EFF3108672B6A288A368A6
:10A8F40013449A78042A10D09A78022A15D0032A8D
:10A9040018D0052006B962B670BD7846FEF74CFA39
:10A91400E8E77846FEF748FAE5E7211D2046FFF709
:10A9240063FEA288A3681344E6E703229A702B60AF
:10A934000020E7E77846FEF737FA0020E2E738B56B
:10A94400044680B1EFF3108572B6A088A168014473
:10A954008B78042B0BD08878022814BF00200120A8
:10A9640005B962B638BD7846FEF71EFAEAE7204616
:10A97400FFF74AFE0146EEE738B5044678B1EFF337
:10A98400108572B6A088A16801448878C31EDBB222
:10A99400012B08D82046FFF737FE0146F5E7784635
:10A9A400FEF702FAEBE7022814BF0020012005B9E4
:10A9B40062B638BD70B50C46064678B194B1EFF373
:10A9C400108572B6A378012B10D0032B13D1214626
:10A9D4003046FFF76CFE05B962B670BD7846FEF7E7
:10A9E400E3F9EBE77846FEF7DFF9E8E7214630467E
:10A9F400FFF778FEEFE77846FEF7D6F9EBE710B5F8
:10AA0400EFF3108472B68388816819448B78042B21
:10AA140006D08878B0FA80F0400904B962B610BD57
:10AA2400FFF7F2FD0146F4E708B5064B98680022EB
:10AA34001A605A609A60DA601A615A619A6104F085
:10AA4400A7FD08BD1437002000B585B00A4BDB68AC
:10AA540002228DF8002001934FF480530293074A99
:10AA64006946012001F054F918B9012005B05DF8D8
:10AA740004FB0020FAE700BF143700203037002021
:10AA840000B585B00A4B1B6802228DF800200193A3
:10AA94004FF480530293074A6946012001F038F9C4
:10AAA40018B9012005B05DF804FB0020FAE700BFE7
:10AAB4003437002030370020164BDA681379517987
:10AAC4005B1A03F57F2303F6FF7302EB03339A4209
:10AAD40005D002F580520F4BDA600320704700B5B1
:10AAE40085B00D4B1B6801208DF8000001930B4BC2
:10AAF4000393042302930A4A694601F009F918B141
:10AB0400002005B05DF804FB024B01221A760220F6
:10AB1400F7E700BF1437002034370020383700200F
:10AB24003037002000B585B00C4BDA680C4B1B683D
:10AB3400043301208DF800000192039340F6FC7366
:10AB44000293084A694601F0E3F818B90120034B5F
:10AB5400187600E0002005B05DF804FB14370020EF
:10AB6400343700203037002000B585B00A4B1B680D
:10AB740001208DF800000193084B039304230293F2
:10AB8400074A694601F0C4F818B9012005B05DF818
:10AB940004FB0020FAE700BF3437002020370020F0
:10ABA4003037002010B584B0104BDA681478104B9D
:10ABB4001B68043301208DF8000001930392029472
:10ABC4000C4A694601F0A4F868B9094B1B6804F003
:10ABD400FC041C440434054B5C61D9680A780A44BB
:10ABE4001A61012000E0002004B010BD14370020D9
:10ABF400343700203037002008B50023092B09D84A
:10AC0400064A52F82320824201D00133F6E7044A6F
:10AC1400536002E07846FEF7C7F808BD081B04003D
:10AC24001437002010B5214BDB6853B11F4B1B7E3A
:10AC34005BB91E4B5B68092B26D97846FEF7B4F83E
:10AC440022E07846FEF7B0F8F0E77846FEF7ACF875
:10AC5400EFE7164A536801335360092B21D978462C
:10AC6400FEF7A2F81DE0114B00225A6019E00F4BC9
:10AC74001B7E1BB10D4B02221A7012E0FFF7D4FEAB
:10AC84000FE00A4B1B7E83B9084B5A68084B53F8F4
:10AC94002230984704460228E9D00328E3D001284B
:10ACA400D7D0012CEDD0032CEBD010BD14370020ED
:10ACB400081B0400104B1B681B685A1E12F1030F7B
:10ACC40018D8C3F30B020AB10020704710B50B4A21
:10ACD400D3600023137653760124147093600848DC
:10ACE400FFF78AFF0749204601F000F8FFF79AFFB3
:10ACF400204610BD00207047343700201437002050
:10AD04004DAA02000DAD020008B50B78032B06D046
:10AD14000B4B1B78012B06D0022B0BD008BD084B24
:10AD240000221A76F4E7064B1B7E002BF6D1FFF7C0
:10AD340079FFF3E70B78032BF0D1FFF775FEEDE70E
:10AD44001437002000B585B0174BDB6818784FF630
:10AD5400FF7203F58051184404F07CFFF0B1024601
:10AD6400114BD9680B780B44984219D00E4B5B7E7B
:10AD740093B10E4B01208DF800000192039304233C
:10AD840002930B4A694600F0C3FF58B90120064BF1
:10AD9400187605B05DF804FB064BEBE70120F8E7F5
:10ADA4000120F6E70020F4E714370020441D0400D6
:10ADB40030370020401D040008B5104BDB681878BC
:10ADC400002203F58051184404F044FF08B1012027
:10ADD40008BD0A4BDA68137951795B1A03F57F23AE
:10ADE40003F6FF7302EB03339A4205D002F5805257
:10ADF400024BDA600320EBE70220E9E71437002076
:10AE0400F0B585B0514BDD686A792B79591E8A42B9
:10AE140014D005F580510C780C444D490968081D7F
:10AE24000E7906449B1A05EB03356388013B9BB2FC
:10AE340047F6FE62934260D927461BE00120434B4C
:10AE440058767EE07846FDF7AFFF16E027F47F637F
:10AE540023F00F0303F580531A7813449D4247D916
:10AE64009C4247D25A88013A92B21F4647F6FE6185
:10AE74008A4210D93B88002BE4D03B8807EB83033C
:10AE840023F47F6222F00F029342DFD07A88B2F576
:10AE9400FE4FE3D1DAE71C462FE07846FDF784FF46
:10AEA40016E027F47F6323F00F0303F580531A7829
:10AEB40013449D4220D99C423BD25A88013A92B213
:10AEC4001F4647F6FE618A4210D93B88002BE4D026
:10AED4003B8807EB830323F47F6222F00F02934243
:10AEE400DFD07A88B2F5FE4FE3D1DAE71C4604E0FE
:10AEF400002402E0002400E00024E4B1144B1968AB
:10AF0400628801F58051304604F0A4FE064690B1F3
:10AF140001200E4B18768DF8000001940D4B03931D
:10AF2400042302930C4A694600F0F2FE58B92746FE
:10AF3400CBE70024E1E7B4FA84F46409034B5C76BC
:10AF4400012005B0F0BD0020FBE700BF143700204E
:10AF5400343700203C1D0400303700202DE9F04137
:10AF640086B0644B1B6923B1624B5B692BB100272C
:10AF740048E07846FDF718FFF6E77846FDF714FF3A
:10AF8400F5E77846FDF710FF17E028F47F6323F018
:10AF94000F0303F580531A7813449E421FD99C4231
:10AFA40021D25A88013A92B2984647F6FE618A4203
:10AFB40013D9B8F80030002BE3D0B8F8003008EB10
:10AFC400830323F47F6222F00F029342DDD0B8F8AA
:10AFD4000220B2F5FE4FE0D1D7E71C4600E0002482
:10AFE4001CB1009438E00024FAE700230093019B8D
:10AFF400002B5AD10127002C76D0628847F6FF73C4
:10B004009A4271D0002F73D13A4B5A6922F47F656A
:10B0140025F00F05AD1A05F580551C69DE683379F6
:10B0240072799B1A06EB0336002301936388013B74
:10B034009BB247F6FE629342D3D9A046B9E778465D
:10B04400FDF7B2FE23E024F47F6424F00F0404F53A
:10B054008054237823441C46A642C8D92388019AE5
:10B0640002EB83029542C2D9009B634023F47F63C1
:10B0740023F00F03002BBAD16388013B9BB247F640
:10B08400FE618B42B3D801922388002BD7D023884A
:10B0940004EB830323F47F6222F00F029342D2D0A5
:10B0A4006288B2F5FE4FD6D1CDE7124A526901202B
:10B0B4008DF808000392009A059204930E4A02A99F
:10B0C40000F026FE70B90B49019B23F003024B6983
:10B0D40013444B6114B1074B1C618CE77846FDF7B0
:10B0E40063FEF8E7002000E0012006B0BDE8F0812F
:10B0F4000120FAE7143700203037002008B54FF05C
:10B1040010235B69B3F1FF3F09D04FF010235B6953
:10B114002BB14FF010235B69A3F5805305E04FF08A
:10B1240080525169136903FB01F3A3F58053024A6A
:10B134001360FFF7BFFD08BD3437002010B5044687
:10B14400B0B1104B1B78BBB10E4BD968E36858798A
:10B15400A3EB0032914211D31A79121A02F57F221D
:10B1640002F6FF7203EB0233994209D8012004E08E
:10B174007846FDF719FEE4E7002010BD0020FCE747
:10B184000020FAE714370020024B1878003018BF6B
:10B19400012070471437002010B504460E4B1B786D
:10B1A40093B92378032B13D10B4B9C60E268DA60CC
:10B1B40000225A601A76012018705A76074900F066
:10B1C40095FDFFF72FFD10BD7846FDF7EDFDE8E78F
:10B1D4007846FDF7E9FDE7E7143700200DAD0200DE
:10B1E400014B1868704700BF3437002010B504467F
:10B1F40080B163681BB123680BB1A36813B97846A7
:10B20400FDF7D2FDA3685A1E134207D10023E36061
:10B21400236110BD7846FDF7C7FDEAE77846FDF7E0
:10B22400C3FDF3E770B5F0B104468368EBB1EFF307
:10B23400108572B60369C068834210D0084621683D
:10B244006268A668013E334003FB021108B115F0A1
:10B25400C4FA2369013323614DB962B608E005B924
:10B2640062B6052504E00E2502E0092500E000256C
:10B27400284670BD0246C0F30B0048BB51B310B45E
:10B2840001F6FF710C0B144B0221C3F80415124B89
:10B29400D3F80034002BFAD0014602E002F58052C4
:10B2A4000131A14208D20C4BC3F808250A4BD3F84C
:10B2B4000034002BFAD0F1E7074B0022C3F8042531
:10B2C400054BD3F80034002BFAD05DF8044B7047DB
:10B2D400102070470920704700E0014010F0030F70
:10B2E4002FD111F0030F2FD182B312F0030F2FD1FE
:10B2F40010B49208174B0124C3F80445154BD3F836
:10B304000034002BFAD002E0043004312246541EEB
:10B3140052B10B68B3F1FF3FF6D003600D4BD3F885
:10B324000034002BFAD0EFE70A4B0021C3F80415D0
:10B33400084BD3F80034002BFAD010465DF8044BC8
:10B3440070471022104670471022FBE70922F9E7E4
:10B354000922F7E700E001404388012B05D0022BC6
:10B3640001D1043008600120704704304860FAE7D6
:10B3740008B508220221084803F07BFF38B1074AC8
:10B3840091684160127B027203F0ACFF08BD04486F
:10B3940004F0D6F8FAE700BF4437002090370020C5
:10B3A400002E00200E4B1B78CBB910B50D4B5C68FA
:10B3B40004F50054B4F1807F00D910BD04220121AA
:10B3C400094803F056FF30B14460054A0121117069
:10B3D40003F088FFF1E7054804F0B2F8EDE77047A1
:10B3E400A43700209037002044370020F02D00209F
:10B3F40010B5044608B1A04710BD7846FDF7D4FC4B
:10B40400F9E7000008B501210C4803F093FF20B9C7
:10B4140002210A4803F08EFF28B1094804F090F88D
:10B42400FFF7C0FF08BD074A002313605360936011
:10B43400D3601361044A1370F2E700BF443700205D
:10B44400202E0020903700206837002000B58DB0F2
:10B454000B4B1B7B012B0ED0094A926804928DF88A
:10B464000830039002238DF8043001A8FFF784F814
:10B474000DB05DF804FB024A9268013A0492EEE7CB
:10B484009037002010B58CB00C4682B94B88012B44
:10B4940020D1134B1B7833B16268124B5A60104BA6
:10B4A40000221A7016E07846FDF77EFCF4E7032AC2
:10B4B40012D12C22002101A815F0B8F911238DF81E
:10B4C40004300394084BDA6805921B69069301A8BB
:10B4D400FFF752F80CB010BD7846FDF765FCE8E7BD
:10B4E400A4370020903700204437002000B583B0F3
:10B4F40001F0C8FE0021009101916B46134A1448E3
:10B5040003F0ACFD009B63B1019A52B11868114974
:10B5140088601879087393420BD950B900220A60E5
:10B524000AE00C4B00221A609A601A73FFF720FF9E
:10B5340002E01268074B1A60064B1A685A60FFF75C
:10B5440031FF01F0E3FE03B05DF804FB5DB30200DC
:10B55400443700209037002008B504F045F8A0F5E2
:10B56400805008BD00B587B0002300930193029377
:10B57400039304930593FFF7EFFF009001230193D6
:10B58400064B03936946064803F08BFF10B907B0D6
:10B594005DF804FB034803F0D3FFF8E789B4020025
:10B5A40044370020102E002010B50B4B00241C60E3
:10B5B4005C609C60DC601C6101F0F8F8074B58602B
:10B5C400074A9A60074ADA601C615C61064B1C708A
:10B5D400FFF7C8FF10BD00BF903700206C37002074
:10B5E4001DB7020000879303A537002008B5084B58
:10B5F4001B7803B108BD0748074B036000F00CFE3D
:10B60400064801F06BF8024B01221A70F2E700BF02
:10B61400403700208437002045B802006C370020F2
:10B6240010B501F02FFE164B1B7B0BBB144B9B7B01
:10B634001BBB134B1A8A41F282639A4204D8114B02
:10B644001B782BB1012300E001231BB9082410E06F
:10B654000023FAE70A4B01221A7300241C829A6819
:10B6640001329A60FFF784FE2046FFF7EFFE00E008
:10B67400082401F04BFE204610BD0824F9E700BF62
:10B6840090370020A537002010B501F0FBFD204BBA
:10B694005B7B9BB11E4B9B7BF3B91D4B1A8A41F21A
:10B6A40082639A4204D81B4B1B782BB1012300E020
:10B6B40001239BB1012302E00023FAE700231C4687
:10B6C4000BB3134B00225A731B7B4BB1012B0ED0CF
:10B6D4007846FDF769FB16E00023F0E70023EEE768
:10B6E400FFF79EFF78B17846FDF75EFB0BE0084B51
:10B6F40000201860586018731882FFF7A7FEFFF740
:10B7040037FEFFF74FFE01F001FE204610BD00BFDB
:10B7140090370020A537002008B5214B1B7B7BB157
:10B72400012B20D07846FDF73FFB1D4A138A0133D5
:10B7340013821B4B5B8A13B1013B194A538208BD28
:10B74400174B1A8A41F282639A4204D8154B1B782C
:10B754003BB1012300E00123002BE6D0FFF794FF67
:10B76400E7E70023F8E70E4B1B8A41F2826293421B
:10B7740004D80C4A127872B1012200E00122002A96
:10B78400D3D042F2B012934207D9054B01225A7327
:10B79400FFF77AFFCDE70022F1E7FFF775FFC4E773
:10B7A40090370020A537002010B5244B1B7B002BBD
:10B7B40035D10446214B5B8A2BBB1AB91F4B9B68BE
:10B7C4008B4205D3FAB11D4B9B6801338B421AD2CD
:10B7D4001A4B9B682A338B4223D3184B9B7B03BBA6
:10B7E400164B996000221A605A601A8242F606517A
:10B7F40059825A731A73FFF7BBFDFFF7D3FD204636
:10B80400FFF724FE0DE062B10C4B9B6801338B42C1
:10B8140007D10A4B01225A73FFF736FF01E0012BCF
:10B8240000D010BD002AFCD1044B9B688B42F8D198
:10B83400024B01225A73FFF727FFF2E790370020EB
:10B844000378042B00D0704743681B78002BFAD090
:10B8540010B58468027E437E012A14BF00220122AF
:10B86400416904F11000FFF79FFF10BD10B5184B9C
:10B874001A685B689A4226D20446154B1B7B012B3F
:10B8840014D0144B9A4213D2114B1A685B68403B94
:10B894009A4215D2EFF3108172B60D4A1368581C00
:10B8A4001060236001B962B6002010BD0A4BE9E7BD
:10B8B400074B01225A73FFF7E7FE0028EAD1E3E7BA
:10B8C400FFF770FDE6E7FFF76DFD0F20EDE700BF22
:10B8D40090370020FFFF7F0000E0FF0008B538B17B
:10B8E4000D4B01229A730D4A13680133136008BD8E
:10B8F4000A4B1B685BB1094A1368013B1360002BB8
:10B90400F5D1054B00229A73FFF7BEFEEFE77846A8
:10B91400FDF74AFAEFE700BF903700203C370020DC
:10B9240000B58DB0ADF808008DF810200391032305
:10B934008DF8043001A8FEF71FFE0DB05DF804FB7E
:10B94400014B9868704700BF90370020054B1B7B64
:10B95400012B02D0034B98687047024B986801385A
:10B96400704700BF90370020044B9B68584010F08C
:10B97400010F00D0013B1846704700BF90370020EC
:10B98400014B187B704700BF903700202DE9F04130
:10B99400002722E02449BC2303FB04F3CA5A0132E2
:10B9A400CA520221404602F049FC013602214046B7
:10B9B40002F014FC70B11C4ABC2303FB04239D68F1
:10B9C400002DE7D0BC2303FB04F3D25A01463846CA
:10B9D400A847DFE796B90137FFB2022F20D83C46CB
:10B9E400BC2303FB07F308330F4D1D4405F1040882
:10B9F4000221404602F0F2FB0026DBE7002140462C
:10BA040002F084FC0828E6D1074BBC2202FB043474
:10BA1400A368002BDFD00022044938469847DAE7B0
:10BA24000120BDE8F08100BFB0370020301B0400C6
:10BA340008B5082383731023437300F11C03436187
:10BA44000323037300F1180303610C3002F030FC8C
:10BA540008BD000008B50378012B06D0022B06D0E0
:10BA64007846FDF7A1F9002002E0292000E0014812
:10BA740008BD00BF084C010008B50278012A07D0B0
:10BA8400022A13D07846FDF78FF94FF4FA7308E0D1
:10BA940083685B1A9B0803EB830003EBC00303F585
:10BAA400FA730748984228BF184608BD83685B1A92
:10BAB400180B044B03FB00F303F5FA73F1E700BF23
:10BAC40060850100084C010038B5044601210C30A2
